:100000000C9462000C948A000C948A000C94EE0408
:100010000C94EE040C94EE040C948A000C948A0068
:100020000C948A000C948A000C948A000C942D0481
:100030000C948A000C948A000C948A000C948A0018
:100040000C94E3030C948A000C94B1030C948B037E
:100050000C948A000C948A000C948A000C948A00F8
:100060000C948A000C948A000000000024002700F1
:100070002A0000000000250028002B0000000008D6
:10008000000201000003040700000000000000005F
:1000900000000000230026002900040404040404D6
:1000A0000404020202020202030303030303010227
:1000B00004081020408001020408102001020408F6
:1000C00010203D0511241FBECFEFD8E0DEBFCDBF0D
:1000D00011E0A0E0B1E0E4E6F4E102C005900D9289
:1000E000A232B107D9F722E0A2E2B1E001C01D922D
:1000F000A631B207E1F710E0C2E6D0E004C02197D4
:10010000FE010E94250AC136D107C9F70E94B60533
:100110000C94300A0C940000CF92DF92EF92FF9281
:100120000F931F93CF93DF936C017A018B01C0E093
:10013000D0E0CE15DF0589F0D8016D918D01D60193
:10014000ED91FC910190F081E02DC6010995892B7C
:1001500011F47E0102C02196ECCFC701DF91CF914F
:100160001F910F91FF90EF90DF90CF900895CF9364
:10017000DF93C0E0D1E0809130019091310169912D
:10018000DC01ED91FC910190F081E02D0995B1E049
:10019000CA30DB0781F7DF91CF910895FC01538DC1
:1001A000448D252F30E0842F90E0821B930B541751
:1001B00010F0CF96089501970895FC01918D828DDE
:1001C000981761F0828DDF01A80FB11D5D968C91AB
:1001D000928D9F5F9F73928F90E008958FEF9FEFB6
:1001E0000895FC01918D828D981731F0828DE80F72
:1001F000F11D858D90E008958FEF9FEF0895FC012C
:10020000918D228D892F90E0805C9F4F821B9109F8
:100210008F73992708958EE491E00E94FF0021E0FA
:10022000892B09F420E0822F0895FC01848DDF01E1
:10023000A80FB11DA35ABF4F2C91848D90E0019659
:100240008F739927848FA689B7892C93A089B18948
:100250008C9180648C93938D848D981306C0028852
:10026000F389E02D80818F7D80830895EF92FF9246
:100270000F931F93CF93DF93EC0181E0888F9B8DC9
:100280008C8D981305C0E889F989808185FD24C08B
:10029000F62E0B8D10E00F5F1F4F0F731127E02E0E
:1002A0008C8DE8120CC00FB607FCFACFE889F989EB
:1002B000808185FFF5CFCE010E941501F1CF8B8D96
:1002C000FE01E80FF11DE35AFF4FF0820B8FEA8920
:1002D000FB898081806207C0EE89FF896083E8899D
:1002E000F98980818064808381E090E0DF91CF9103
:1002F0001F910F91FF90EF900895CF93DF93EC0142
:10030000888D8823C9F0EA89FB89808185FD05C035
:10031000A889B9898C9186FD0FC00FB607FCF5CF6F
:10032000808185FFF2CFA889B9898C9185FFEDCFB7
:10033000CE010E941501E7CFDF91CF91089580E0B3
:1003400090E0892B29F00E940B0181110C94000090
:10035000089590E0FC01E458FF4F3491FC01E25510
:10036000FF4F2491FC01E656FF4FE491EE2309F480
:100370003BC0332339F1333091F038F43130A9F0F8
:10038000323001F584B58F7D12C0373091F03830AE
:10039000A1F03430B9F4809180008F7D03C080914A
:1003A00080008F77809380000DC084B58F7784BDE7
:1003B00009C08091B0008F7703C08091B0008F7D1D
:1003C0008093B000F0E0EE0FFF1FEE58FF4FA591B5
:1003D000B4918FB7F894EC91611103C020952E234E
:1003E00001C02E2B2C938FBF0895CF93DF9390E005
:1003F000FC01E255FF4F2491FC01E656FF4F84912A
:10040000882361F190E0880F991FFC01E859FF4FA4
:10041000C591D491FC01EE58FF4FA591B4916111A3
:1004200009C09FB7F8948881209582238883EC9136
:100430002E230BC0623061F49FB7F8943881822F6D
:10044000809583238883EC912E2B2C939FBF06C02D
:100450008FB7F894E8812E2B28838FBFDF91CF913F
:1004600008953FB7F89480912A0190912B01A091B3
:100470002C01B0912D0126B5A89B05C02F3F19F086
:100480000196A11DB11D3FBFBA2FA92F982F882714
:10049000820F911DA11DB11DBC01CD0142E0660F6F
:1004A000771F881F991F4A95D1F708958F929F92C1
:1004B000AF92BF92CF92DF92EF92FF926B017C01DD
:1004C0000E9431024B015C01C114D104E104F1042A
:1004D000F1F00E943102DC01CB0188199909AA09C7
:1004E000BB09883E9340A105B10570F321E0C21A13
:1004F000D108E108F10888EE880E83E0981EA11C5F
:10050000B11CC114D104E104F10419F7DDCFFF904F
:10051000EF90DF90CF90BF90AF909F908F90089515
:100520002FB7F894609126017091270180912801DE
:10053000909129012FBF0895FC0190819C3080F596
:10054000818128E830E0281B310987FD3395220F8F
:10055000331F220F331F621773077CF0828128E557
:1005600032E0281B310987FD3395220F331F220FFC
:10057000331F621773070CF49B0122503109220FBD
:10058000331F4FB7F894892F90E0FC01EE0FFF1F47
:100590008E0F9F1FFC01E551FE4F328321834FBF19
:1005A00008951F93CF93DF93EC01162F88818C3031
:1005B00008F04EC061E0812F0E94F5018881E82F8C
:1005C000F0E09F01220F331FE20FF31FE551FE4FB2
:1005D0001F739081907C192B108319821A826CE012
:1005E0000E94190A9CE0899FB001112440E050E06C
:1005F0009A01260F371FF901EE0FFF1F2E0F3F1F25
:10060000F901E551FE4F908196FD16C04F5F5F4F97
:100610004C30510569F781110FC01092800082E0C3
:10062000809381001092850010928400B19A80918D
:100630006F00826080936F00E881F0E0CF01880F47
:10064000991FE80FF91FE551FE4F80818064808378
:100650008881DF91CF911F910895E1E0F1E080E082
:1006600090E02191820F911D21E0E730F207C9F758
:1006700091958195910990930701809308010895C0
:10068000E0E0F1E08383158216820E942D03E09161
:100690002E01F0912F010994E0E0F1E0838375834E
:1006A00066830E942D03E0912E01F0912F010994A1
:1006B000089580E090E008950F931F9390E0FC016F
:1006C000E255FF4FA491FC01E656FF4FE491F0E0A4
:1006D000EE0FFF1FE057FF4F859194918A019B0118
:1006E0003F704A2F6A2F0E94F80461157105810539
:1006F000910549F0DC01CB010196A11DB11DBC01A2
:10070000CD019F7003C060E070E0CB011F910F919D
:1007100008950E942B0A1F920F920FB60F92112478
:100720002F933F934F935F936F937F938F939F93F9
:10073000AF93BF93EF93FF938EE491E00E94150176
:10074000FF91EF91BF91AF919F918F917F916F91A9
:100750005F914F913F912F910F900FBE0F901F907F
:1007600018951F920F920FB60F9211242F938F930B
:100770009F93EF93FF93E0915E01F0915F01808181
:10078000E0916401F091650182FD12C09081809139
:1007900067018F5F8F7320916801821751F0E0919C
:1007A0006701F0E0E25BFE4F958F8093670101C027
:1007B0008081FF91EF919F918F912F910F900FBEAC
:1007C0000F901F9018951F920F920FB60F92112441
:1007D0002F933F938F939F93AF93BF938091260165
:1007E00090912701A0912801B09129013091250114
:1007F00023E0230F2D3720F40196A11DB11D05C064
:1008000026E8230F0296A11DB11D20932501809398
:10081000260190932701A0932801B093290180918C
:100820002A0190912B01A0912C01B0912D010196EC
:10083000A11DB11D80932A0190932B01A0932C013F
:10084000B0932D01BF91AF919F918F913F912F91C7
:100850000F900FBE0F901F9018951F920F920FB61A
:100860000F9211242F933F934F935F936F937F9336
:100870008F939F93AF93BF93EF93FF938091240146
:1008800087FF05C010928500109284001BC0209144
:100890002401022E000C330B80910F0290E02817E8
:1008A000390784F480912401082E000C990BFC0177
:1008B000EE0FFF1F8E0F9F1FFC01E551FE4F808141
:1008C00086FD15C0809124018F5F809324012091C3
:1008D0002401022E000C330B80910F0290E02817A8
:1008E0003907C4F4809124018C3064F113C08091E5
:1008F0002401082E000C990BFC01EE0FFF1F8E0F38
:100900009F1FFC01E551FE4F808160E08F730E94C4
:10091000A901D8CF809184009091850004968034FD
:100920009C4918F480E49CE905C080918400909172
:100930008500049690938900809388008FEF8093C0
:1009400024013BC0209184003091850080912401D6
:10095000082E000C990BFC01EE0FFF1F8E0F9F1F3E
:10096000FC01E551FE4F81819281820F931F90938C
:1009700089008093880080912401082E000C990B37
:10098000FC01EE0FFF1F8E0F9F1FFC01E551FE4F74
:10099000808186FF12C080912401082E000C990BE3
:1009A000FC01EE0FFF1F8E0F9F1FFC01E551FE4F54
:1009B000808161E08F730E94A901FF91EF91BF9147
:1009C000AF919F918F917F916F915F914F913F91E7
:1009D0002F910F900FBE0F901F9018951F920F929E
:1009E0000FB60F9211240F900FBE0F901F90189505
:1009F000CF92DF92EF92FF920F931F93E82FF92F80
:100A000005C0015011092109310961F19081962336
:100A10009417B9F305C0015011092109310911F1E9
:100A2000908196239413F7CFC12CD12CE12CF12C7B
:100A30000AC08FEFC81AD80AE80AF80A0C151D0573
:100A40002E053F0579F080818623841791F36C2D64
:100A50007D2D8E2D9F2D1F910F91FF90EF90DF9098
:100A6000CF90089560E070E080E090E01F910F91DA
:100A7000FF90EF90DF90CF90089510925101109267
:100A8000500188EE93E0A0E0B0E080935201909393
:100A90005301A0935401B093550183E191E09093E9
:100AA0004F0180934E0185EC90E090935B01809321
:100AB0005A0184EC90E090935D0180935C0180EC9E
:100AC00090E090935F0180935E0181EC90E09093C1
:100AD00061018093600182EC90E0909363018093C8
:100AE000620186EC90E0909365018093640110921E
:100AF0006701109268011092690110926A01809159
:100B00000F028C30A0F491E0980F90930F02809325
:100B1000130290E0FC01EE0FFF1F8E0F9F1FFC01E0
:100B2000E551FE4F88EB9BE09283818303C08FEFFA
:100B30008093130280910F028C30A0F491E0980F03
:100B400090930F028093100290E0FC01EE0FFF1FC4
:100B50008E0F9F1FFC01E551FE4F88EB9BE09283B7
:100B6000818308958FEF809310020895CF93DF93D0
:100B70001F92CDB7DEB7789484B5826084BD84B50A
:100B8000816084BD85B5826085BD85B5816085BD88
:100B900080916E00816080936E0010928100809140
:100BA00081008260809381008091810081608093C8
:100BB0008100809180008160809380008091B100ED
:100BC00084608093B1008091B00081608093B00018
:100BD00080917A00846080937A0080917A008260AC
:100BE00080937A0080917A00816080937A0080916E
:100BF0007A00806880937A001092C100E0915E01D3
:100C0000F0915F0182E08083E0915A01F0915B01F5
:100C10001082E0915C01F0915D018FEC8083109275
:100C20006601E0916201F091630186E08083E091CA
:100C30006001F0916101808180618083E0916001B9
:100C4000F0916101808188608083E0916001F09182
:100C50006101808180688083E0916001F091610191
:100C600080818F7D80838EE491E090933101809329
:100C7000300187EB90E090932F0180932E0169E182
:100C800070E086E00E944C0312E061E0812F0E9438
:100C9000F5011F5F1830C9F760E08CE00E94F50194
:100CA00060E089E00E94F50160E08AE00E94F501C1
:100CB00068E070E083E192E00E94D1026BE070E0B6
:100CC00080E192E00E94D10268EE73E083E192E05D
:100CD0000E949C026CED75E080E192E00E949C0213
:100CE00061E087E00E94A90161E086E00E94A9011D
:100CF00060E082E00E94A90160E083E00E94A90117
:100D000060E084E00E94A90160E085E00E94A90102
:100D100081E080930E0160ED77E080E090E00E943A
:100D20005602AA24AA94BA2C02E010E0EE24E3941E
:100D3000F12C43E0C42ED12C52E2452E512C60E61A
:100D4000262E69E0362E48EA51E660E070E089E040
:100D50000E945C03609336017093370180933801E1
:100D6000909339019B01AC01275B33404109510944
:100D7000273C31054105510528F410924B01109292
:100D80004A0124C09B01AC01295735404109510952
:100D9000273C31054105510528F4F0924B01E092C2
:100DA0004A0114C0DC01CB018B539740A109B10962
:100DB000873C9105A105B10528F410934B010093E0
:100DC0004A0104C0B0924B01A0924A016FE070E06A
:100DD00080E090E00E94560240E452E46FE070E050
:100DE0008AE00E945C036093360170933701809320
:100DF0003801909339019B01AC01275B33404109D5
:100E00005109273C310541055105A8F480913A016B
:100E100090913B01019751F00E9490026093320142
:100E2000709333018093340190933501F0923B012C
:100E3000E0923A0163C09B01AC012957354041095A
:100E40005109273C310541055105A0F580913A0132
:100E500090913B018330910509F450C0892B09F42E
:100E60004DC00E9490022091320130913301409197
:100E7000340150913501DC01CB01821B930BA40B93
:100E8000B50B853F9140A105B10528F0D0923B01FB
:100E9000C0923A0104C010923B0110923A010E94A4
:100EA00090026093320170933301809334019093E8
:100EB000350124C0DC01CB018B539740A109B10956
:100EC000873C9105A105B105A8F480913A01909164
:100ED0003B01029751F00E9490026093320170939F
:100EE0003301809334019093350110933B010093BB
:100EF0003A0104C0B0923B01A0923A016FE070E069
:100F000080E090E00E94560248EA51E660E070E01E
:100F10008CE00E945C0360933601709337018093EC
:100F200038019093390120914C0130914D01207F7F
:100F300033272031310509F46DC23B014C0147EBE9
:100F4000641A43E0740A8108910857EC651671042D
:100F50008104910418F481E190E011C0203331053F
:100F6000B1F0693745E074078105910568F0603498
:100F700056E075078105910538F483E390E090937E
:100F80004D0180934C0112C02032310579F0AB0144
:100F9000BC014B53574061097109473C510561053C
:100FA000710520F450924D0140924C0180914A010C
:100FB00090914B0197FF04C091E090930E0104C003
:100FC000892B11F410920E0180910E01882321F0DB
:100FD00010924B0110924A0180904A0190904B016F
:100FE00023E08216910409F467C080913A01909140
:100FF0003B018130910551F11CF4892B41F056C021
:1010000082309105C1F1039709F456C04FC0609139
:101010000A0170910B01673E45E074070CF03FC078
:10102000623D55E075071CF4665F7F4F3AC06C3D2A
:10103000754009F441C0D0923B01C0923A018CED59
:1010400095E090930B0180930A0130C060910A01F2
:1010500070910B01603699E0790754F06036794061
:1010600059F130920B0120920A0160E679E020C02C
:101070006C5E7F4F16C060910A0170910B0169355B
:1010800042E0740764F468357240B1F088E592E09C
:1010900090930B0180930A0168E572E009C06451E6
:1010A000710970930B0160930A0102C06CED75E049
:1010B00080E192E00E949C0260904C0170904D0192
:1010C0008928B1F5C3018F7099278130910591F07E
:1010D0001CF4892B49F11FC00297E9F481E00E94BA
:1010E000400364E170E080E090E00E94560261E01D
:1010F00070E00DC062E070E082E10E944C0364E1A8
:1011000070E080E090E00E94560260E070E089E1CB
:101110000E944C0309C086E10E94400364E170E034
:1011200080E090E00E94560290EF6922772402C08E
:10113000612C712C70924D0160924C0180910E01D6
:10114000811165C180914A0190914B0181309105D7
:1011500009F457C08230910509F4E8C0892B09F0E1
:1011600056C161E086E00E94A901109249011092E7
:101170004801809113028F3FC1F090E09C01220F43
:10118000331F820F931FFC01E551FE4F6181728175
:1011900083E0660F771F8A95E1F794E0769567956F
:1011A0009A95E1F76E5F7F4F02C060E070E0709348
:1011B0004701609346018091440190914501009759
:1011C000A9F0693E23E0720758F06951710983E183
:1011D00092E00E949C02D0924501C092440106C058
:1011E000039721F410924501109244010E9490024D
:1011F00060934001709341018093420190934301B9
:1012000006C161E086E00E94A901809113028F3F30
:10121000D1F090E09C01220F331F820F931FFC013D
:10122000E551FE4F81819281F3E0880F991FFA9575
:10123000E1F7A4E096958795AA95E1F73C0142E095
:10124000640E711C02C0612C712C70924701609277
:101250004601809044019090450152E0851691042A
:1012600009F4D5C080ED681687E0780678F58928FE
:1012700081F461E070E082E10E944C0364E170E07F
:1012800080E090E00E94560260E070E089E10E94F8
:101290004C03F0924501E092440160914601709147
:1012A0004701675E7F4F83E192E00E949C020E94AB
:1012B00090026093400170934101809342019093AA
:1012C00043011092490110924801A1C091E0891692
:1012D000910409F09CC00E9490022091400130913D
:1012E00041014091420150914301DC01CB01821B3D
:1012F000930BA40BB50B813D9740A105B10508F4F4
:1013000086C0109345010093440190924901809258
:10131000480140ED641647E0740609F478C060EDBA
:1013200077E083E192E00E949C0271C080914401C9
:1013300090914501029709F06AC08091480190910F
:101340004901019709F063C060900C0170900D0194
:1013500061E086E00E94A901C30101978F309105E9
:10136000F0F59C012170332720933F01BC01769555
:101370006795562F5170952E50933E01AC015695AE
:10138000479556954795417040933D0173E096957A
:1013900087957A95E1F7582F5170852E50933C012F
:1013A0008FEF681A780A622F82E049830E94A901B0
:1013B000692D83E00E94A9014981642F84E00E9485
:1013C000A901682D85E00E94A90160E086E00E94E5
:1013D000A90168EB7BE080E090E00E94560260E0AB
:1013E00086E00E94A90160E082E00E94A90160E01D
:1013F00083E00E94A90160E084E00E94A90160E00E
:1014000085E00E94A90170920D0160920C010E947A
:101410009F0199CC693725E072078105910508F491
:10142000B6CD603446E074078105910508F4A5CD7A
:10143000AECD991B79E004C0991F961708F0961B52
:10144000881F7A95C9F780950895EE0FFF1F0590C4
:10145000F491E02D099481E090E0F8940C94300A26
:04146000F894FFCF2E
:101464007EFF06000000000000EFDC050100010023
:1014740000000036018C00CE007D01FF00DD00F18C
:02148400000066
:107800000C94343C0C94513C0C94513C0C94513CE1
:107810000C94513C0C94513C0C94513C0C94513CB4
:107820000C94513C0C94513C0C94513C0C94513CA4
:107830000C94513C0C94513C0C94513C0C94513C94
:107840000C94513C0C94513C0C94513C0C94513C84
:107850000C94513C0C94513C0C94513C0C94513C74
:107860000C94513C0C94513C11241FBECFEFD8E036
:10787000DEBFCDBF11E0A0E0B1E0ECE9FFE702C060
:1078800005900D92A230B107D9F712E0A2E0B1E065
:1078900001C01D92AD30B107E1F70E942D3D0C945F
:1078A000CC3F0C94003C982F959595959595959582
:1078B000905D8F708A307CF0282F295A8091C0000B
:1078C00085FFFCCF9093C6008091C00085FFFCCF60
:1078D0002093C6000895282F205DF0CF982F809127
:1078E000C00085FFFCCF9093C6000895EF92FF92F1
:1078F0000F931F93EE24FF2487018091C00087FD22
:1079000017C00894E11CF11C011D111D81E4E8164B
:1079100082E4F8068FE0080780E0180770F3E09132
:107920000401F091050109958091C00087FFE9CF1E
:107930008091C6001F910F91FF90EF9008950E94D3
:10794000763C982F8091C00085FFFCCF9093C600B5
:1079500091362CF490330CF09053892F089597555D
:10796000892F08951F930E949F3C182F0E949F3CCF
:107970001295107F810F1F9108951F93182F882350
:1079800021F00E94763C1150E1F71F9108951F935A
:10799000182F0E94763C803249F0809103018F5F5E
:1079A000809303018530C1F01F9108958091C0003C
:1079B00085FFFCCF84E18093C6008091C00085FFE5
:1079C000FCCF1093C6008091C00085FFFCCF80E102
:1079D0008093C6001F910895E0910401F091050184
:1079E00009951F9108950E94763C803241F0809164
:1079F00003018F5F80930301853081F008958091AA
:107A0000C00085FFFCCF84E18093C6008091C00058
:107A100085FFFCCF80E18093C6000895E0910401CA
:107A2000F09105010995089540E951E08823A1F0FE
:107A30002D9A28EE33E0FA013197F1F721503040CA
:107A4000D1F72D9828EE33E0FA013197F1F7215064
:107A50003040D1F7815061F708953F924F925F9285
:107A60006F927F928F929F92AF92BF92CF92DF924E
:107A7000EF92FF920F931F93CF93DF93000080E16B
:107A80008093C4001092C50088E18093C10086E015
:107A90008093C2005098589A259A81E00E94143D24
:107AA00024E1F22E9EE1E92E85E9D82E0FE0C02ECA
:107AB00010E1B12EAA24A394B1E49B2EA6E58A2E50
:107AC000F2E57F2EE0E26E2E79E4572E63E5462E36
:107AD00050E5352E0E94763C8033B1F18133B9F107
:107AE000803409F46FC0813409F476C0823409F41B
:107AF00085C0853409F488C0803531F1823521F1A3
:107B0000813511F1853509F485C0863509F48DC0BC
:107B1000843609F496C0843709F403C1853709F423
:107B200072C1863709F466C0809103018F5F80932C
:107B30000301853079F6E0910401F0910501099582
:107B40000E94763C803351F60E94F33CC3CF0E94E2
:107B5000763C803249F78091C00085FFFCCFF092DF
:107B6000C6008091C00085FFFCCF9092C600809136
:107B7000C00085FFFCCF8092C6008091C00085FFC9
:107B8000FCCF7092C6008091C00085FFFCCF609250
:107B9000C6008091C00085FFFCCF5092C600809146
:107BA000C00085FFFCCF4092C6008091C00085FFD9
:107BB000FCCF3092C6008091C00085FFFCCFB09210
:107BC000C60088CF0E94763C863808F4BDCF0E945C
:107BD000763C0E94F33C7ECF0E94763C803809F4CC
:107BE0009CC0813809F40BC1823809F43CC1883942
:107BF00009F48FC080E00E94C73C6CCF84E10E94F2
:107C0000BD3C0E94F33C66CF85E00E94BD3C0E94D3
:107C1000F33C60CF0E94763C809306010E94763C44
:107C2000809307010E94F33C55CF0E94763C80333D
:107C300009F41DC183E00E94BD3C80E00E94C73C66
:107C400049CF0E94763C809309020E94763C809343
:107C5000080280910C028E7F80930C020E94763C79
:107C6000853409F415C18091080290910902892B8D
:107C700089F000E010E00E94763CF801E85FFE4FDA
:107C800080830F5F1F4F80910802909109020817AF
:107C9000190788F30E94763C803209F045CF809125
:107CA0000C0280FF01C16091060170910701660F0F
:107CB000771F7093070160930601A0910802B091AD
:107CC00009021097C9F0E8E0F1E09B01AD014E0F09
:107CD0005F1FF999FECF32BD21BD819180BDFA9A17
:107CE000F99A2F5F3F4FE417F50799F76A0F7B1F4B
:107CF00070930701609306018091C00085FFFCCF5F
:107D0000F092C6008091C00085FFFCCFB092C60003
:107D1000E1CE83E00E94C73CDDCE82E00E94C73CFA
:107D2000D9CE0E94763C809309020E94763C8093D3
:107D300008028091060190910701880F991F909386
:107D40000701809306010E94763C853409F4A6C0A1
:107D500080910C028E7F80930C020E94763C8032D0
:107D600009F0B8CE8091C00085FFFCCFF092C6002C
:107D7000609108027091090261157105B9F140E046
:107D800050E080910C02A82FA170B82FB27011C0E2
:107D9000BB2309F45CC0E0910601F0910701319624
:107DA000F0930701E09306014F5F5F4F46175707B7
:107DB000E8F4AA2369F3F999FECF209106013091E6
:107DC000070132BD21BDF89A90B58091C00085FFB2
:107DD000FCCF9093C6002F5F3F4F30930701209355
:107DE00006014F5F5F4F4617570718F38091C00099
:107DF00085FDE5CE8091C00085FFF8CFE0CE81E023
:107E00000E94C73C67CE0E94763C803209F08CCE3F
:107E10008091C00085FFFCCFF092C6008091C00029
:107E200085FFFCCFE092C6008091C00085FFFCCFAB
:107E3000D092C6008091C00085FFFCCFC092C600E2
:107E40008091C00085FFFCCFB092C60043CEE09188
:107E50000601F091070194918091C00085FFFCCF4D
:107E60009093C6009CCF80E10E94C73C33CE0E9415
:107E7000763C0E94763C182F0E94763C112309F430
:107E800083C0113009F484C08FE00E94C73C22CE29
:107E900080910C02816080930C02E5CE80910C02EF
:107EA000816080930C0259CF809107018823880F4D
:107EB000880B8A2180930B02809106019091070123
:107EC000880F991F90930701809306018091080203
:107ED00080FF09C080910802909109020196909359
:107EE000090280930802F894F999FECF1127E091D6
:107EF0000601F0910701C8E0D1E08091080290915D
:107F00000902103091F40091570001700130D9F34B
:107F100003E000935700E89500915700017001308D
:107F2000D9F301E100935700E89509901990009169
:107F3000570001700130D9F301E000935700E89534
:107F40001395103498F011270091570001700130FB
:107F5000D9F305E000935700E895009157000170B0
:107F60000130D9F301E100935700E895329602976A
:107F700009F0C7CF103011F00296E5CF112480919F
:107F8000C00085FFB9CEBCCE8EE10E94C73CA2CD19
:0C7F900085E90E94C73C9ECDF894FFCF0D
:027F9C00800063
:040000030000780081
:00000001FF