:100000000C9463000C948B000C948B000C948B006C
:100010000C948B000C948B000C948B000C948B0034
:100020000C948B000C948B000C948B000C94EB02C2
:100030000C948B000C948B000C948B000C948B0014
:100040000C947A040C948B000C948E070C94C007CB
:100050000C948B000C948B000C948B000C948B00F4
:100060000C948B000C948B0000000008000201002F
:100070000003040700000000000000000102040863
:100080001020408001020408102001020408102002
:10009000040404040404040402020202020203032E
:1000A00003030303000000002300260029000000D2
:1000B0000000250028002B0000000000240027007D
:1000C0002A00E702F00711241FBECFEFD8E0DEBF01
:1000D000CDBF11E0A0E0B1E0E8EEF2E102C0059092
:1000E0000D92AE32B107D9F722E0AEE2B1E001C025
:1000F0001D92AE30B207E1F710E0C6ECD0E004C0CC
:100100002297FE010E946E09C23CD107C9F70E94E6
:1001100034080C9472090C940000CF92DF92EF9295
:10012000FF920F931F93E82FF92F05C0015011097B
:100130002109310961F1908196239417B9F305C023
:10014000015011092109310911F19081962394136D
:10015000F7CFC12CD12CE12CF12C0AC08FEFC81A9B
:10016000D80AE80AF80A0C151D052E053F0579F096
:1001700080818623841791F36C2D7D2D8E2D9F2DEC
:100180001F910F91FF90EF90DF90CF90089560E066
:1001900070E080E090E01F910F91FF90EF90DF9072
:1001A000CF90089526E040E855E260E070E081E7F6
:1001B00091E00E942C0760E083E00E94AE0561E0C0
:1001C00088E00E94AE0561E087E00E94AE0561E034
:1001D00086E00E94AE0560E088E00E94E70560E0EE
:1001E00087E00E94E70560E086E00E94E7056AE09C
:1001F00070E08FE391E00E9441046CED75E08FE3C5
:1002000091E00E9447040E94C40460933B017093F4
:100210003C0180933D0190933E010E94C404609391
:100220003701709338018093390190933A0180E04F
:1002300090E0A4EBBDE380932E0190932F01A09357
:100240003001B0933101089565E070E080E090E006
:100250000E94F30420E432E44FE050E061E083E0E8
:100260000E941D069B0125583340293F310540F06F
:100270006D567740673C710530F080E090E008955E
:1002800081E090E0089582E090E00895CF93DF93BD
:10029000EC018130910551F08230910551F06CED07
:1002A00075E08FE391E0209779F407C06CE677E082
:1002B00002C06EE774E08FE391E00E9447048091F2
:1002C0003501811116C004C0DF91CF910C94470411
:1002D0008091360181110DC0CD2B59F00E94C404CC
:1002E00028EE33E040E050E00E944A09622F61703E
:1002F00001C060E087E0DF91CF910C94E705CF92D9
:10030000DF92EF92FF920E94C4046B017C0180E1B6
:100310000E94680520913601222349F1213009F01D
:1003200053C02091060130910701821793070CF00A
:1003300043C080913B0190913C01A0913D01B0915F
:100340003E01B701A601481B590B6A0B7B0B80913C
:100350000A0190910B01AA2797FDA095BA2F841747
:100360009507A607B70780F51092360125C02091A2
:1003700006013091070182179307F4F080913B0149
:1003800090913C01A0913D01B0913E01B701A601C1
:10039000481B590B6A0B7B0B80910A0190910B0152
:1003A000AA2797FDA095BA2F84179507A607B70728
:1003B00058F481E080933601C0923B01D0923C0119
:1003C000E0923D01F0923E01FF90EF90DF90CF90E0
:1003D0000895CF92DF92EF92FF920E94C4046B01C6
:1003E0007C0181E10E94680520913501222319F0EA
:1003F000213041F153C02091040130910501821751
:1004000093070CF043C08091370190913801A0917F
:100410003901B0913A01B701A601481B590B6A0B8B
:100420007B0B8091080190910901AA2797FDA09567
:10043000BA2F84179507A607B70780F581E0809348
:10044000350124C0209106013091070182179307DE
:10045000ECF08091370190913801A0913901B09171
:100460003A01B701A601481B590B6A0B7B0B80911F
:10047000080190910901AA2797FDA095BA2F84172A
:100480009507A607B70750F410923501C0923701BF
:10049000D0923801E0923901F0923A01FF90EF904A
:1004A000DF90CF90089580913501882319F080E086
:1004B00090E002C081E090E00C944601809136010A
:1004C000882319F080E090E002C082E090E00C9474
:1004D0004601CF93DF938EE00E94680521E0823BC6
:1004E00092400CF020E02093330180913201811181
:1004F00005C0211103C08091340101C081E08093C7
:1005000032018FE00E9468054AE050E0BC0181E7BB
:1005100091E00E9425090E942401EC010E947F01C4
:100520000E94E9016091360188E00E94E705609130
:10053000350187E00E94E70580913201882381F030
:1005400080913301811109C08FE00E94680521E08C
:10055000803A91051CF020E001C021E02093320197
:100560008091320181110EC0C330D10569F40E941F
:10057000C40428EE33E040E050E00E944A09622FB4
:10058000617003C061E001C060E086E00E94E705A1
:10059000C230D10551F01CF4219751F00CC0C3308A
:1005A000D10549F0249721F006C00E945E0207C0E1
:1005B0000E94530204C080E090E00E94460165E082
:1005C00070E080E090E0DF91CF910C94F3048FE332
:1005D00091E00C94A7031F920F920FB60F92112473
:1005E0002F933F934F935F936F937F938F939F933B
:1005F000AF93BF93EF93FF938091430187FF05C0B3
:1006000010928500109284001AC020914301332774
:1006100027FD30958091420190E0281739077CF43E
:1006200080914301992787FD9095FC01EE0FFF1FF4
:10063000E80FF91FEC5BFE4F808186FD15C08091AD
:1006400043018F5F8093430120914301332727FDAE
:1006500030958091420190E028173907BCF48091D1
:1006600043018C305CF112C080914301992787FDD2
:100670009095FC01EE0FFF1FE80FF91FEC5BFE4F9A
:10068000808160E08F730E94E705D9CF809184005C
:1006900090918500049680349C4918F480E49CE98C
:1006A00005C0809184009091850004969093890004
:1006B000809388008FEF8093430138C0209184009D
:1006C0003091850080914301992787FD9095FC0129
:1006D000EE0FFF1FE80FF91FEC5BFE4F8181928147
:1006E000820F931F9093890080938800809143012B
:1006F000992787FD9095FC01EE0FFF1FE80FF91F6A
:10070000EC5BFE4F808186FF11C0809143019927E9
:1007100087FD9095FC01EE0FFF1FE80FF91FEC5BC2
:10072000FE4F808161E08F730E94E705FF91EF919A
:10073000BF91AF919F918F917F916F915F914F91F9
:100740003F912F910F900FBE0F901F901895209101
:1007500042012C30A0F431E0320F30934201FC0111
:100760002083822F90E0FC01EE0FFF1FE80FF91F9E
:10077000EC5BFE4F88EB9BE09283818308952FEF23
:10078000FC0120830895DF92EF92FF920F931F9355
:10079000CF93DF93EC01D62E7A01890188818C30CA
:1007A00008F066C061E08D2D0E94AE058881A82FFB
:1007B000B0E0FD01EE0FFF1FEA0FFB1FEC5BFE4FE9
:1007C0002D2D2F739081907C922B908360E272E0AC
:1007D0006E197F0977FF02C06D5F7F4F7595679532
:1007E00075956795698340E659E0401B510B57FFAB
:1007F00002C04D5F5F4F55954795559547954A8384
:100800006CE00E943E099CE0899FB001112420E029
:1008100030E0A901460F571FFA01EE0FFF1FE40F4A
:10082000F51FEC5BFE4F908196FD16C02F5F3F4F8A
:100830002C30310571F781110FC01092800082E0D9
:10084000809381001092850010928400B19A80916B
:100850006F00826080936F00888190E0FC01EE0F52
:10086000FF1FE80FF91FEC5BFE4F808180648083DF
:100870008881DF91CF911F910F91FF90EF90DF90D2
:10088000089520E639E040E252E00C94C303FC01F5
:1008900080818C3070F5918128E830E0291B310986
:1008A00097FD3395220F331F220F331F62177307F3
:1008B0007CF0928128E532E0291B310997FD3395C0
:1008C000220F331F220F331F621773070CF49B0193
:1008D00022503109220F331F4FB7F89490E0FC01EA
:1008E000EE0FFF1FE80FF91FEC5BFE4F32832183F1
:1008F0004FBF08951F920F920FB60F9211242F939E
:100900003F938F939F93AF93BF9380916901909191
:100910006A01A0916B01B0916C013091680123E0F4
:10092000230F2D3720F40196A11DB11D05C026E827
:10093000230F0296A11DB11D2093680180936901C8
:1009400090936A01A0936B01B0936C0180916D014B
:1009500090916E01A0916F01B09170010196A11D5F
:10096000B11D80936D0190936E01A0936F01B093C0
:100970007001BF91AF919F918F913F912F910F90F7
:100980000FBE0F901F9018952FB7F89460916901D2
:1009900070916A0180916B0190916C012FBF089555
:1009A0003FB7F89480916D0190916E01A0916F0115
:1009B000B091700126B5A89B05C02F3F19F0019694
:1009C000A11DB11D3FBF6627782F892F9A2F620F77
:1009D000711D811D911D42E0660F771F881F991FB1
:1009E0004A95D1F708958F929F92AF92BF92CF927E
:1009F000DF92EF92FF926B017C010E94D0044B01C9
:100A00005C01C114D104E104F104F1F00E943D093C
:100A10000E94D004681979098A099B09683E7340CD
:100A20008105910570F321E0C21AD108E108F108AF
:100A300088EE880E83E0981EA11CB11CC114D1045D
:100A4000E104F10429F7DDCFFF90EF90DF90CF9024
:100A5000BF90AF909F908F900895789484B58260F6
:100A600084BD84B5816084BD85B5826085BD85B552
:100A7000816085BDEEE6F0E0808181608083E1E801
:100A8000F0E0108280818260808380818160808339
:100A9000E0E8F0E0808181608083E1EBF0E080813C
:100AA00084608083E0EBF0E0808181608083EAE70E
:100AB000F0E0808184608083808182608083808197
:100AC000816080838081806880831092C100089556
:100AD0008E3008F08E50877020910C0190E4299F91
:100AE00090011124822B80937C0080917A00806495
:100AF00080937A0080917A0086FDFCCF8091780007
:100B00002091790090E0922B0895833081F028F4B1
:100B1000813099F08230A1F008958730A9F08830B3
:100B2000B9F08430D1F4809180008F7D03C0809132
:100B300080008F7780938000089584B58F7702C0FE
:100B400084B58F7D84BD08958091B0008F7703C0F8
:100B50008091B0008F7D8093B0000895CF93DF9394
:100B600090E0FC01E458FF4F2491FC01E057FF4F57
:100B70008491882349F190E0880F991FFC01E85483
:100B8000FF4FA591B49182559F4FFC01C591D4911F
:100B90009FB7611108C0F8948C91209582238C93A3
:100BA000888182230AC0623051F4F8948C91322FEC
:100BB000309583238C938881822B888304C0F8949A
:100BC0008C91822B8C939FBFDF91CF9108950F93CF
:100BD0001F93CF93DF931F92CDB7DEB7282F30E05E
:100BE000F901E859FF4F8491F901E458FF4F14913E
:100BF000F901E057FF4F04910023C9F0882321F049
:100C000069830E9485056981E02FF0E0EE0FFF1FE8
:100C1000E255FF4FA591B4919FB7F8948C91611163
:100C200003C01095812301C0812B8C939FBF0F902F
:100C3000DF91CF911F910F9108950F931F93762FFE
:100C400090E0FC01E458FF4F6491FC01E057FF4F36
:100C5000E4917111762FF0E0EE0FFF1FEC55FF4F7E
:100C60008591949189019A013F70472F0E948D00D0
:100C7000611571058105910531F06F5F7F4F8F4FD1
:100C80009F4F9F7003C060E070E0CB011F910F91F8
:100C90000895FC01818D228D90E0805C9F4F821B26
:100CA00091098F7399270895FC01918D828D981772
:100CB00031F0828DE80FF11D858D90E008958FEF62
:100CC0009FEF0895FC01918D828D981761F0828DC0
:100CD000DF01A80FB11D5D968C91928D9F5F9F7370
:100CE000928F90E008958FEF9FEF089586EE97E042
:100CF000892B49F080E090E0892B29F00E94E607DB
:100D000081110C9400000895FC01848DDF01A80F6F
:100D1000B11DA35ABF4F2C91848D90E001968F7323
:100D20009927848FA689B7892C93A089B1898C9142
:100D300080648C93938D848D981306C00288F38908
:100D4000E02D80818F7D80830895CF93DF93EC0128
:100D5000888D8823C9F0EA89FB89808185FD05C0DB
:100D6000A889B9898C9186FD0FC00FB607FCF5CF15
:100D7000808185FFF2CFA889B9898C9185FFEDCF5D
:100D8000CE010E948406E7CFDF91CF910895CF92E4
:100D9000DF92FF920F931F93CF93DF931F92CDB7F4
:100DA000DEB76C0181E0D60158968C9358975B961C
:100DB0009C915B975C968C915C97981307C05096BA
:100DC000ED91FC915197808185FD2EC0F601038D38
:100DD00010E00F5F1F4F0F731127F02EF601848D67
:100DE000F81211C00FB607FCF9CFD6015096ED915D
:100DF000FC915197808185FFF1CFC60169830E94E4
:100E000084066981EBCF838DE80FF11DE35AFF4F14
:100E10006083D6015B960C935B975296ED91FC91A3
:100E20005397808180620CC0D6015696ED91FC915B
:100E3000579760835096ED91FC9151978081806423
:100E4000808381E090E00F90DF91CF911F910F910F
:100E5000FF90DF90CF900895BF92CF92DF92EF92F4
:100E6000FF92CF93DF93EC016A017B01B22EE889F8
:100E7000F98982E08083411581EE5807610571058B
:100E8000A1F060E079E08DE390E0A70196010E9477
:100E90004A0921503109410951095695479537951D
:100EA0002795211580E1380798F0E889F9891082A3
:100EB00060E874E88EE190E0A70196010E944A097B
:100EC0002150310941095109569547953795279584
:100ED000EC85FD853083EE85FF852083188EEC89B7
:100EE000FD89B082EA89FB89808180618083EA89FB
:100EF000FB89808188608083EA89FB8980818068A2
:100F00008083EA89FB8980818F7D8083DF91CF9107
:100F1000FF90EF90DF90CF90BF9008951F920F92B7
:100F20000FB60F9211242F938F939F93EF93FF93FC
:100F3000E0918101F09182018081E0918701F0913F
:100F4000880182FD12C0908180918A018F5F8F732A
:100F500020918B01821751F0E0918A01F0E0EF5867
:100F6000FE4F958F80938A0101C08081FF91EF91A0
:100F70009F918F912F910F900FBE0F901F901895FA
:100F80001F920F920FB60F9211242F933F934F93FE
:100F90005F936F937F938F939F93AF93BF93EF93E1
:100FA000FF9381E791E00E948406FF91EF91BF914A
:100FB000AF919F918F917F916F915F914F913F91F1
:100FC0002F910F900FBE0F901F90189581E791E021
:100FD0000E94490621E0892B09F420E0822F089520
:100FE000109274011092730188EE93E0A0E0B0E0DB
:100FF0008093750190937601A0937701B093780167
:1010000081E191E0909372018093710185EC90E011
:1010100090937E0180937D0184EC90E09093800119
:1010200080937F0180EC90E0909382018093810116
:1010300081EC90E0909384018093830182EC90E0B6
:10104000909386018093850186EC90E090938801CF
:101050008093870110928A0110928B0110928C016B
:1010600010928D01089508950E942D050E94330865
:101070000E94D200C6E7D6E00E9469022097E1F301
:101080000E947606F9CFCF92DF92EF92FF920F93F4
:101090001F93CF93DF937C016A01EB0100E010E026
:1010A0000C151D0571F06991D701ED91FC9101902E
:1010B000F081E02DC7010995892B19F00F5F1F4FB3
:1010C000EFCFC801DF91CF911F910F91FF90EF906B
:1010D000DF90CF9008956115710581F0DB010D90CF
:1010E0000020E9F7AD0141505109461B570BDC01C7
:1010F000ED91FC910280F381E02D099480E090E075
:101100000895DC01ED91FC910190F081E02D0994AE
:101110006DE171E00C946B088F929F92AF92BF9239
:10112000DF92EF92FF920F931F93CF93DF93CDB790
:10113000DEB7A1970FB6F894DEBF0FBECDBF7C011E
:10114000F42FD52ECB0119A2223008F42AE08E010B
:101150000F5D1F4F822E912CA12CB12C6F2F7D2D56
:10116000A50194010E944A09F22FD32ECA01015011
:1011700011096A3014F4E0E301C0E7E3E60FD80197
:10118000EC93232B242B252B49F7B801C7010E9490
:101190006B08A1960FB6F894DEBF0FBECDBFDF91EE
:1011A000CF911F910F91FF90EF90DF90BF90AF9084
:1011B0009F908F900895CF92DF92EF92FF920F93BE
:1011C0001F93CF93DF93EC016A017B012115310559
:1011D00079F4E881F9810190F081E02D642FDF91AD
:1011E000CF911F910F91FF90EF90DF90CF900994D6
:1011F0002A303105E9F477FF1AC06DE20E948108B8
:101200008C0144275527BA014C195D096E097F09E5
:101210002AE0CE010E948C08800F911FDF91CF91B0
:101220001F910F91FF90EF90DF90CF9008952AE0EB
:10123000B701A601CE01DF91CF911F910F91FF90D1
:10124000EF90DF90CF900C948C080F931F93CF9367
:10125000DF93EC019A01AB01662757FD6095762F6D
:101260000E94DB088C01CE010E948808800F911F2C
:10127000DF91CF911F910F9108950895991B79E007
:1012800004C0991F961708F0961B881F7A95C9F716
:1012900080950895A1E21A2EAA1BBB1BFD010DC06B
:1012A000AA1FBB1FEE1FFF1FA217B307E407F50716
:1012B00020F0A21BB30BE40BF50B661F771F881FF2
:1012C000991F1A9469F760957095809590959B0188
:1012D000AC01BD01CF010895EE0FFF1F0590F49101
:0812E000E02D0994F894FFCF02
:1012E8000100000064004B002003320001000000F0
:1012F80000C7064308490662065406A5060D0A00FB
:0E1308006E616E00696E66006F7666002E00E4
:107800000C94343C0C94513C0C94513C0C94513CE1
:107810000C94513C0C94513C0C94513C0C94513CB4
:107820000C94513C0C94513C0C94513C0C94513CA4
:107830000C94513C0C94513C0C94513C0C94513C94
:107840000C94513C0C94513C0C94513C0C94513C84
:107850000C94513C0C94513C0C94513C0C94513C74
:107860000C94513C0C94513C11241FBECFEFD8E036
:10787000DEBFCDBF11E0A0E0B1E0ECE9FFE702C060
:1078800005900D92A230B107D9F712E0A2E0B1E065
:1078900001C01D92AD30B107E1F70E942D3D0C945F
:1078A000CC3F0C94003C982F959595959595959582
:1078B000905D8F708A307CF0282F295A8091C0000B
:1078C00085FFFCCF9093C6008091C00085FFFCCF60
:1078D0002093C6000895282F205DF0CF982F809127
:1078E000C00085FFFCCF9093C6000895EF92FF92F1
:1078F0000F931F93EE24FF2487018091C00087FD22
:1079000017C00894E11CF11C011D111D81E4E8164B
:1079100082E4F8068FE0080780E0180770F3E09132
:107920000401F091050109958091C00087FFE9CF1E
:107930008091C6001F910F91FF90EF9008950E94D3
:10794000763C982F8091C00085FFFCCF9093C600B5
:1079500091362CF490330CF09053892F089597555D
:10796000892F08951F930E949F3C182F0E949F3CCF
:107970001295107F810F1F9108951F93182F882350
:1079800021F00E94763C1150E1F71F9108951F935A
:10799000182F0E94763C803249F0809103018F5F5E
:1079A000809303018530C1F01F9108958091C0003C
:1079B00085FFFCCF84E18093C6008091C00085FFE5
:1079C000FCCF1093C6008091C00085FFFCCF80E102
:1079D0008093C6001F910895E0910401F091050184
:1079E00009951F9108950E94763C803241F0809164
:1079F00003018F5F80930301853081F008958091AA
:107A0000C00085FFFCCF84E18093C6008091C00058
:107A100085FFFCCF80E18093C6000895E0910401CA
:107A2000F09105010995089540E951E08823A1F0FE
:107A30002D9A28EE33E0FA013197F1F721503040CA
:107A4000D1F72D9828EE33E0FA013197F1F7215064
:107A50003040D1F7815061F708953F924F925F9285
:107A60006F927F928F929F92AF92BF92CF92DF924E
:107A7000EF92FF920F931F93CF93DF93000080E16B
:107A80008093C4001092C50088E18093C10086E015
:107A90008093C2005098589A259A81E00E94143D24
:107AA00024E1F22E9EE1E92E85E9D82E0FE0C02ECA
:107AB00010E1B12EAA24A394B1E49B2EA6E58A2E50
:107AC000F2E57F2EE0E26E2E79E4572E63E5462E36
:107AD00050E5352E0E94763C8033B1F18133B9F107
:107AE000803409F46FC0813409F476C0823409F41B
:107AF00085C0853409F488C0803531F1823521F1A3
:107B0000813511F1853509F485C0863509F48DC0BC
:107B1000843609F496C0843709F403C1853709F423
:107B200072C1863709F466C0809103018F5F80932C
:107B30000301853079F6E0910401F0910501099582
:107B40000E94763C803351F60E94F33CC3CF0E94E2
:107B5000763C803249F78091C00085FFFCCFF092DF
:107B6000C6008091C00085FFFCCF9092C600809136
:107B7000C00085FFFCCF8092C6008091C00085FFC9
:107B8000FCCF7092C6008091C00085FFFCCF609250
:107B9000C6008091C00085FFFCCF5092C600809146
:107BA000C00085FFFCCF4092C6008091C00085FFD9
:107BB000FCCF3092C6008091C00085FFFCCFB09210
:107BC000C60088CF0E94763C863808F4BDCF0E945C
:107BD000763C0E94F33C7ECF0E94763C803809F4CC
:107BE0009CC0813809F40BC1823809F43CC1883942
:107BF00009F48FC080E00E94C73C6CCF84E10E94F2
:107C0000BD3C0E94F33C66CF85E00E94BD3C0E94D3
:107C1000F33C60CF0E94763C809306010E94763C44
:107C2000809307010E94F33C55CF0E94763C80333D
:107C300009F41DC183E00E94BD3C80E00E94C73C66
:107C400049CF0E94763C809309020E94763C809343
:107C5000080280910C028E7F80930C020E94763C79
:107C6000853409F415C18091080290910902892B8D
:107C700089F000E010E00E94763CF801E85FFE4FDA
:107C800080830F5F1F4F80910802909109020817AF
:107C9000190788F30E94763C803209F045CF809125
:107CA0000C0280FF01C16091060170910701660F0F
:107CB000771F7093070160930601A0910802B091AD
:107CC00009021097C9F0E8E0F1E09B01AD014E0F09
:107CD0005F1FF999FECF32BD21BD819180BDFA9A17
:107CE000F99A2F5F3F4FE417F50799F76A0F7B1F4B
:107CF00070930701609306018091C00085FFFCCF5F
:107D0000F092C6008091C00085FFFCCFB092C60003
:107D1000E1CE83E00E94C73CDDCE82E00E94C73CFA
:107D2000D9CE0E94763C809309020E94763C8093D3
:107D300008028091060190910701880F991F909386
:107D40000701809306010E94763C853409F4A6C0A1
:107D500080910C028E7F80930C020E94763C8032D0
:107D600009F0B8CE8091C00085FFFCCFF092C6002C
:107D7000609108027091090261157105B9F140E046
:107D800050E080910C02A82FA170B82FB27011C0E2
:107D9000BB2309F45CC0E0910601F0910701319624
:107DA000F0930701E09306014F5F5F4F46175707B7
:107DB000E8F4AA2369F3F999FECF209106013091E6
:107DC000070132BD21BDF89A90B58091C00085FFB2
:107DD000FCCF9093C6002F5F3F4F30930701209355
:107DE00006014F5F5F4F4617570718F38091C00099
:107DF00085FDE5CE8091C00085FFF8CFE0CE81E023
:107E00000E94C73C67CE0E94763C803209F08CCE3F
:107E10008091C00085FFFCCFF092C6008091C00029
:107E200085FFFCCFE092C6008091C00085FFFCCFAB
:107E3000D092C6008091C00085FFFCCFC092C600E2
:107E40008091C00085FFFCCFB092C60043CEE09188
:107E50000601F091070194918091C00085FFFCCF4D
:107E60009093C6009CCF80E10E94C73C33CE0E9415
:107E7000763C0E94763C182F0E94763C112309F430
:107E800083C0113009F484C08FE00E94C73C22CE29
:107E900080910C02816080930C02E5CE80910C02EF
:107EA000816080930C0259CF809107018823880F4D
:107EB000880B8A2180930B02809106019091070123
:107EC000880F991F90930701809306018091080203
:107ED00080FF09C080910802909109020196909359
:107EE000090280930802F894F999FECF1127E091D6
:107EF0000601F0910701C8E0D1E08091080290915D
:107F00000902103091F40091570001700130D9F34B
:107F100003E000935700E89500915700017001308D
:107F2000D9F301E100935700E89509901990009169
:107F3000570001700130D9F301E000935700E89534
:107F40001395103498F011270091570001700130FB
:107F5000D9F305E000935700E895009157000170B0
:107F60000130D9F301E100935700E895329602976A
:107F700009F0C7CF103011F00296E5CF112480919F
:107F8000C00085FFB9CEBCCE8EE10E94C73CA2CD19
:0C7F900085E90E94C73C9ECDF894FFCF0D
:027F9C00800063
:040000030000780081
:00000001FF