:100000000C9462000C948A000C948A000C94960460
:100010000C9496040C9496040C948A000C948A0018
:100020000C948A000C948A000C948A000C94D503DA
:100030000C948A000C948A000C948A000C948A0018
:100040000C948B030C948A000C9459030C94330386
:100050000C948A000C948A000C948A000C948A00F8
:100060000C948A000C948A000000000024002700F1
:100070002A0000000000250028002B0000000008D6
:10008000000201000003040700000000000000005F
:1000900000000000230026002900040404040404D6
:1000A0000404020202020202030303030303010227
:1000B00004081020408001020408102001020408F6
:1000C00010205D0B11241FBECFEFD8E0DEBFCDBFE7
:1000D00011E0A0E0B1E0E2E6F8E102C005900D9287
:1000E000AA34B107D9F722E0AAE4B1E001C01D9219
:1000F000AC38B207E1F710E0C2E6D0E004C02197C7
:10010000FE010E94240CC136D107C9F70E94C30525
:100110000C942F0C0C940000CF93DF93C0E0D1E03F
:1001200080915801909159016991DC01ED91FC9108
:100130000190F081E02D0995B1E0CA30DB0781F72D
:10014000DF91CF910895FC01538D448D252F30E030
:10015000842F90E0821B930B541710F0CF960895D4
:1001600001970895FC01918D828D981761F0828D21
:10017000DF01A80FB11D5D968C91928D9F5F9F73DB
:10018000928F90E008958FEF9FEF0895FC01918D7D
:10019000828D981731F0828DE80FF11D858D90E0EA
:1001A00008958FEF9FEF0895FC01918D228D892F87
:1001B00090E0805C9F4F821B91098F73992708956F
:1001C0008CE791E00E94D40021E0892B09F420E023
:1001D000822F0895FC01848DDF01A80FB11DA35A61
:1001E000BF4F2C91848D90E001968F739927848F57
:1001F000A689B7892C93A089B1898C9180648C934E
:10020000938D848D981306C00288F389E02D808138
:100210008F7D80830895EF92FF920F931F93CF936A
:10022000DF93EC0181E0888F9B8D8C8D981305C046
:10023000E889F989808185FD24C0F62E0B8D10E0B8
:100240000F5F1F4F0F731127E02E8C8DE8120CC02B
:100250000FB607FCFACFE889F989808185FFF5CFD1
:10026000CE010E94EA00F1CF8B8DFE01E80FF11D57
:10027000E35AFF4FF0820B8FEA89FB89808180620D
:1002800007C0EE89FF896083E889F98980818064ED
:10029000808381E090E0DF91CF911F910F91FF90DB
:1002A000EF900895CF93DF93EC01888D8823C9F0F8
:1002B000EA89FB89808185FD05C0A889B9898C916F
:1002C00086FD0FC00FB607FCF5CF808185FFF2CF0A
:1002D000A889B9898C9185FFEDCFCE010E94EA00F3
:1002E000E7CFDF91CF91089580E090E0892B29F04E
:1002F0000E94E00081110C940000089590E0FC0140
:10030000E458FF4F3491FC01E255FF4F2491FC016A
:10031000E656FF4FE491EE2309F43BC0332339F155
:10032000333091F038F43130A9F0323001F584B532
:100330008F7D12C0373091F03830A1F03430B9F4ED
:10034000809180008F7D03C0809180008F778093A3
:1003500080000DC084B58F7784BD09C08091B00046
:100360008F7703C08091B0008F7D8093B000F0E064
:10037000EE0FFF1FEE58FF4FA591B4918FB7F89481
:10038000EC91611103C020952E2301C02E2B2C93DC
:100390008FBF0895CF93DF9390E0FC01E255FF4FAC
:1003A0002491FC01E656FF4F8491882361F190E08F
:1003B000880F991FFC01E859FF4FC591D491FC01AA
:1003C000EE58FF4FA591B491611109C09FB7F89401
:1003D0008881209582238883EC912E230BC0623084
:1003E00061F49FB7F8943881822F809583238883A6
:1003F000EC912E2B2C939FBF06C08FB7F894E88109
:100400002E2B28838FBFDF91CF9108953FB7F894AB
:100410008091520190915301A0915401B0915501E6
:1004200026B5A89B05C02F3F19F00196A11DB11D4F
:100430003FBFBA2FA92F982F8827820F911DA11D8A
:10044000B11DBC01CD0142E0660F771F881F991FC7
:100450004A95D1F708958F929F92AF92BF92CF9213
:10046000DF92EF92FF926B017C010E9406024B012A
:100470005C01C114D104E104F104F1F00E94060210
:10048000DC01CB0188199909AA09BB09883E934070
:10049000A105B10570F321E0C21AD108E108F10805
:1004A00088EE880E83E0981EA11CB11CC114D104F3
:1004B000E104F10419F7DDCFFF90EF90DF90CF90CA
:1004C000BF90AF909F908F9008952FB7F894609150
:1004D0004E0170914F0180915001909151012FBFB9
:1004E0000895FC0190819C3080F5818128E830E0FE
:1004F000281B310987FD3395220F331F220F331F2D
:10050000621773077CF0828128E532E0281B3109ED
:1005100087FD3395220F331F220F331F6217730796
:100520000CF49B0122503109220F331F4FB7F8946E
:10053000892F90E0FC01EE0FFF1F8E0F9F1FFC0123
:10054000EF59FD4F328321834FBF08951F93CF93FF
:10055000DF93EC01162F88818C3008F04EC061E0EB
:10056000812F0E94CA018881E82FF0E09F01220FAD
:10057000331FE20FF31FEF59FD4F1F739081907CE3
:10058000192B108319821A826CE00E94180C9CE0CF
:10059000899FB001112440E050E09A01260F371FD7
:1005A000F901EE0FFF1F2E0F3F1FF901EF59FD4F0D
:1005B000908196FD16C04F5F5F4F4C30510569F733
:1005C00081110FC01092800082E080938100109210
:1005D000850010928400B19A80916F0082608093B0
:1005E0006F00E881F0E0CF01880F991FE80FF91F35
:1005F000EF59FD4F8081806480838881DF91CF91A6
:100600001F910895E1E0F1E080E090E02191820FF8
:10061000911D21E0E730F207C9F791958195910985
:1006200090930701809308010895E0E0F1E083834F
:10063000158216820E940203E0915601F091570143
:100640000994E0E0F1E08383758366830E940203EE
:10065000E0915601F09157010994089580E090E0EF
:1006600008950E942A0C1F920F920FB60F92112428
:100670002F933F934F935F936F937F938F939F93AA
:10068000AF93BF93EF93FF938CE791E00E94EA0052
:10069000FF91EF91BF91AF919F918F917F916F915A
:1006A0005F914F913F912F910F900FBE0F901F9030
:1006B00018951F920F920FB60F9211242F938F93BC
:1006C0009F93EF93FF93E0918C01F0918D018081D6
:1006D000E0919201F091930182FD12C0908180918E
:1006E00095018F5F8F7320919601821751F0E091F1
:1006F0009501F0E0E458FE4F958F8093950101C07D
:100700008081FF91EF919F918F912F910F900FBE5C
:100710000F901F9018951F920F920FB60F921124F1
:100720002F933F938F939F93AF93BF9380914E01ED
:1007300090914F01A0915001B091510130914D0124
:1007400023E0230F2D3720F40196A11DB11D05C014
:1007500026E8230F0296A11DB11D20934D01809321
:100760004E0190934F01A0935001B093510180919D
:10077000520190915301A0915401B09155010196FD
:10078000A11DB11D8093520190935301A093540178
:10079000B0935501BF91AF919F918F913F912F9150
:1007A0000F900FBE0F901F9018951F920F920FB6CB
:1007B0000F9211242F933F934F935F936F937F93E7
:1007C0008F939F93AF93BF93EF93FF9380914C01CF
:1007D00087FF05C010928500109284001BC02091F5
:1007E0004C01022E000C330B8091850290E02817FB
:1007F000390784F480914C01082E000C990BFC0100
:10080000EE0FFF1F8E0F9F1FFC01EF59FD4F8081E0
:1008100086FD15C080914C018F5F80934C01209123
:100820004C01022E000C330B8091850290E02817BA
:100830003907C4F480914C018C3064F113C080916D
:100840004C01082E000C990BFC01EE0FFF1F8E0FC0
:100850009F1FFC01EF59FD4F808160E08F730E9464
:100860007E01D8CF809184009091850004968034D9
:100870009C4918F480E49CE905C080918400909123
:100880008500049690938900809388008FEF809371
:100890004C013BC0209184003091850080914C0137
:1008A000082E000C990BFC01EE0FFF1F8E0F9F1FEF
:1008B000FC01EF59FD4F81819281820F931F90932C
:1008C00089008093880080914C01082E000C990BC0
:1008D000FC01EE0FFF1F8E0F9F1FFC01EF59FD4F14
:1008E000808186FF12C080914C01082E000C990B6C
:1008F000FC01EE0FFF1F8E0F9F1FFC01EF59FD4FF4
:10090000808161E08F730E947E01FF91EF91BF9122
:10091000AF919F918F917F916F915F914F913F9197
:100920002F910F900FBE0F901F9018951F920F924E
:100930000FB60F9211240F900FBE0F901F901895B5
:10094000CF92DF92EF92FF920F931F93CF93DF939B
:100950006C017A018B01C0E0D0E0CE15DF0589F093
:10096000D8016D918D01D601ED91FC910190F0813E
:10097000E02DC6010995892B11F47E0102C0219654
:10098000ECCFC701DF91CF911F910F91FF90EF90B6
:10099000DF90CF900895ECE7F1E0A089B18982E083
:1009A0008C93A485B5851C92A685B7858FEC8C9316
:1009B000108EA489B58986E08C93A289B3898C9125
:1009C00080618C93A289B3898C9188608C93A28971
:1009D000B3898C9180688C930288F389E02D8081A3
:1009E0008F7D808308950F931F9390E0FC01E25563
:1009F000FF4FA491FC01E656FF4FE491F0E0EE0FAB
:100A0000FF1FE057FF4F859194918A019B013F7032
:100A10004A2F6A2F0E947E05611571058105910597
:100A200049F0DC01CB010196A11DB11DBC01CD0136
:100A30009F7003C060E070E0CB011F910F9108959B
:100A40006115710579F0FB0101900020E9F73197FC
:100A5000AF01461B570BDC01ED91FC910280F38145
:100A6000E02D099480E090E008954F925F926F929C
:100A70007F92EF92FF920F931F93CF93DF93CDB7A7
:100A8000DEB7A1970FB6F894DEBF0FBECDBF7C01D5
:100A9000FA01CB0119A2223008F42AE08E010F5D81
:100AA0001F4F422E512C612C712CBF01A3019201CA
:100AB0000E94F60BF901CA01015011096A3014F4C1
:100AC000605D01C0695CD8016C93232B242B252B1E
:100AD00061F7B801C7010E942005A1960FB6F894EE
:100AE000DEBF0FBECDBFDF91CF911F910F91FF9061
:100AF000EF907F906F905F904F900895CF92DF922C
:100B0000EF92FF920F931F93E82FF92F05C001502A
:100B100011092109310961F1908196239417B9F3E4
:100B200005C0015011092109310911F19081962365
:100B30009413F7CFC12CD12CE12CF12C0AC08FEFEC
:100B4000C81AD80AE80AF80A0C151D052E053F0533
:100B500079F080818623841791F36C2D7D2D8E2D65
:100B60009F2D1F910F91FF90EF90DF90CF900895F0
:100B700060E070E080E090E01F910F91FF90EF90B7
:100B8000DF90CF900895CF93DF9300D000D0CDB702
:100B9000DEB7789484B5826084BD84B5816084BDFD
:100BA00085B5826085BD85B5816085BD80916E000B
:100BB000816080936E00109281008091810082603C
:100BC0008093810080918100816080938100809179
:100BD00080008160809380008091B1008460809368
:100BE000B1008091B00081608093B00080917A0064
:100BF000846080937A0080917A00826080937A008A
:100C000080917A00816080937A0080917A00806878
:100C100080937A001092C10010925D0210925E02E1
:100C200010925F021092600210921B0210921C023E
:100C300010921D0210921E020E9465026B017C013F
:100C40002B013C0128EB420E2BE0521E611C711C53
:100C50000E9465026C157D058E059F0528F04616DD
:100C6000570668067906A0F78CE791E090935C023E
:100C700080935B020E94CB040E94650260931B027A
:100C800070931C0280931D0290931E0263E271E038
:100C900080915B0290915C020E9420050E94650297
:100CA0006B017C012B013C013AE0430E511C611C9D
:100CB000711C0E9465026C157D058E059F0528F04C
:100CC0004616570668067906A0F781E080932F0242
:100CD0000E94CB048CE791E09093590180935801D6
:100CE0008CE890E0909357018093560169E170E0A1
:100CF00086E00E94210312E061E0812F0E94CA0178
:100D00001F5F1830C9F761E087E00E947E0161E053
:100D100086E00E947E0160E082E00E947E0160E049
:100D200083E00E947E0160E084E00E947E0160E03A
:100D300085E00E947E0160E08CE00E94CA0160E0D4
:100D400089E00E94CA0160E08AE00E94CA0168E06E
:100D500070E089E892E00E94A6026BE070E086E80D
:100D600092E00E94A60260910E0170910F0189E845
:100D700092E00E94710260910A0170910B0186E875
:100D800092E00E94710281E08093100160ED77E0B3
:100D900080E090E00E942B0284EF482E552453946B
:100DA000612C712C22242A94322C02E010E0EE24D3
:100DB000E394F12C33E0C32ED12C0E946502672B03
:100DC000682B692B41F40E94650262307105810530
:100DD000910508F41BC10E9465026093780170932D
:100DE000790180937A0190937B0120917401309175
:100DF000750140917601509177016217730784075E
:100E0000950740F4609374017093750180937601A7
:100E1000909377018090740190907501A090760175
:100E2000B09077019B01AC01281939094A095B0987
:100E300049015A013AEF83169104A104B10408F460
:100E4000E5C060937401709375018093760190936F
:100E500077014092270250922802609229027092F4
:100E60002A0210922B0210922C0210922D02109244
:100E70002E0280911F0290912002A0912102B09138
:100E800022028093230290932402A0932502B09320
:100E900026020E94650260931F02709320028093D5
:100EA0002102909322020E94650260931B027093BC
:100EB0001C0280931D0290931E020E9465024B014A
:100EC0005C0165E371E080915B0290915C020E949D
:100ED00020052AE041E050E060E070E080915B0294
:100EE00090915C020E9435056CE371E080915B0299
:100EF00090915C020E9420052AE0B501A401809136
:100F00005B0290915C020E9435056EE371E0809176
:100F10005B0290915C020E94200580911F029091DB
:100F20002002A0912102B0912202B501A401481B28
:100F3000590B6A0B7B0B2AE080915B0290915C025B
:100F40000E9435056EE371E080915B0290915C0236
:100F50000E94200540911F025091200260912102C1
:100F6000709122028091230290912402A091250287
:100F7000B0912602481B590B6A0B7B0B2AE080912B
:100F80005B0290915C020E94350560E471E0809103
:100F90005B0290915C020E9420050E946502AB01F9
:100FA000BC012AE080915B0290915C020E943505B1
:100FB000A0905B02B0905C0262E471E0C5010E9407
:100FC000200562E371E0C5010E9420050E946502D0
:100FD0004B015C019B01AC012B5F3F4F4F4F5F4FBB
:100FE00029833A834B835C830E94650268157905E7
:100FF0008A059B0508F047C30E94650260931F02A3
:101000007093200280932102909322026FE070E09F
:1010100080E090E00E942B0240E355E760E070E042
:1010200089E00E94F30460935E0170935F018093F6
:101030006001909361014B015C013FEE831A32E045
:10104000930AA108B1084FE8841641E09406A10470
:10105000B10428F4109271011092700127C04B0165
:101060005C0159E7851A55E0950AA108B108A7EC7B
:101070008A169104A104B10428F4F0927101E0925F
:10108000700114C0DC01CB018B539740A109B10959
:101090008F389140A105B10528F410937101009398
:1010A000700104C030927101209270016FE070E015
:1010B00080E090E00E942B0240E452E46FE070E098
:1010C0008AE00E94F30460935E0170935F01809355
:1010D0006001909361014B015C01FFEE8F1AF2E019
:1010E0009F0AA108B1082FE8821621E09206A10408
:1010F000B104A8F48091620190916301019751F0CD
:101100000E94650260935A0170935B0180935C01B9
:1011100090935D01F0926301E092620166C04B0121
:101120005C0139E7831A35E0930AA108B10847EC5E
:1011300084169104A104B104A0F5809162019091FC
:1011400063018330910509F450C0892B09F44DC027
:101150000E94650280905A0190905B01A0905C0112
:10116000B0905D01DC01CB0188199909AA09BB097E
:10117000853F9140A105B10528F0D0926301C0924E
:10118000620104C010926301109262010E94650224
:1011900060935A0170935B0180935C0190935D01B1
:1011A00024C0DC01CB018B539740A109B1098F38D2
:1011B0009140A105B105A8F480916201909163016D
:1011C000029751F00E94650260935A0170935B018F
:1011D00080935C0190935D01109363010093620121
:1011E00004C030926301209262016FE070E080E001
:1011F00090E00E942B0240E355E760E070E08CE055
:101200000E94F30460935E0170935F01809360011C
:10121000909361012091720130917301207F3327F7
:101220002031310509F43AC24B015C01FFEE8F1AFF
:10123000F2E09F0AA108B1084FE8841641E0940645
:10124000A104B10438F481E190E09093730180939C
:1012500072012AC020333105B1F06937A5E07A0761
:101260008105910568F06034B6E07B078105910542
:1012700038F4E3E3F0E0F0937301E093720114C0FB
:101280002032310589F0AB01BC014B535740610955
:1012900071094F3851406105710530F422E230E0A8
:1012A00030937301209372018091700190917101CC
:1012B00097FF04C031E03093100104C0892B11F472
:1012C0001092100180911001882321F01092710179
:1012D00010927001A0907001B090710143E0A416CB
:1012E000B10409F469C08091620190916301813079
:1012F000910551F11CF4892B41F058C082309105C1
:10130000D1F1039709F458C051C060910A0170915E
:101310000B01673E55E075070CF041C0623D85E06A
:1013200078071CF4665F7F4F3CC06C3D754009F444
:1013300043C0D0926301C09262018CED95E090931E
:101340000B0180930A0132C060910A0170910B0178
:101350006036A9E07A0764F06036794069F1E0E62A
:10136000F9E0F0930B01E0930A0160E679E020C018
:101370006C5E7F4F16C060910A0170910B01693558
:10138000F2E07F0764F468357240B1F048E552E05E
:1013900050930B0140930A0168E572E009C0645163
:1013A000710970930B0160930A0102C06CED75E046
:1013B00086E892E00E947102809072019090730121
:1013C000AB28B1F5C4018F7099278130910591F058
:1013D0001CF4892B49F11FC00297E9F481E00E94B7
:1013E000150364E170E080E090E00E942B0261E070
:1013F00070E00DC062E070E082E10E94210364E1D0
:1014000070E080E090E00E942B0260E070E089E1F3
:101410000E94210309C086E10E94150364E170E087
:1014200080E090E00E942B0250EF8522992402C0B8
:10143000812C912C90927301809272018091100105
:1014400081111EC1809170019091710181309105CF
:1014500009F44CC08230910509F4C7C0892B09F00A
:101460000FC161E086E00E947E0110926F01109230
:101470006E0180916C0190916D01009761F1609116
:101480000E0170910F01693EA3E07A077CF0625370
:10149000710970930F0160930E0189E892E00E9438
:1014A0007102D0926D01C0926C0115C0039799F43E
:1014B00010926D0110926C01683E734061F0E8EE8D
:1014C000F3E0F0930F01E0930E0168EE73E089E81A
:1014D00092E00E9471020E9465026093680170931D
:1014E000690180936A0190936B01CAC061E086E054
:1014F0000E947E0180906C0190906D01F2E08F1649
:10150000910409F4BDC0A0900E01B0900F0120ED30
:10151000A21627E0B2069CF5892881F461E070E00C
:1015200082E10E94210364E170E080E090E00E948B
:101530002B0260E070E089E10E942103F0926D01CE
:10154000E0926C0160910E0170910F016E5C7F4F13
:1015500070930F0160930E0189E892E00E9471027E
:101560000E946502609368017093690180936A012B
:1015700090936B0110926F0110926E0181C031E067
:101580008316910409F07CC00E94650220916801D5
:101590003091690140916A0150916B01DC01CB01EE
:1015A000821B930BA40BB50B893E9340A105B1059B
:1015B00008F466C010936D0100936C0190926F0166
:1015C00080926E0150EDA51657E0B50609F458C09B
:1015D00080ED97E090930F0180930E0160ED77E02E
:1015E00089E892E00E9471024BC080916C01909159
:1015F0006D01029709F044C080916E0190916F01D6
:101600000197F1F5A0900C01B0900D0161E086E02A
:101610000E947E01C50101978F30910568F59C01FC
:10162000217033272093670181FB992790F99093CC
:10163000660182FB992790F99093650183FB8827C7
:1016400080F9809364019FEFA91AB90AA5010B2CB8
:10165000000C660B770B2AE08CE791E00E943505C1
:1016600062E371E08CE791E00E94200568EB7BE08B
:1016700080E090E00E942B02B0920D01A0920C013C
:101680000E9474019ACB29813A814B815C81261793
:1016900037074807590708F0A7CCAECC6937A5E053
:1016A0007A078105910508F4EECD6034B6E07B073A
:1016B0008105910508F4DDCDE6CD10927F011092F1
:1016C0007E0188EE93E0A0E0B0E0809380019093EB
:1016D0008101A0938201B093830185E191E0909311
:1016E0007D0180937C0185EC90E09093890180934B
:1016F000880184EC90E090938B0180938A0180ECC8
:1017000090E090938D0180938C0181EC90E0909318
:101710008F0180938E0182EC90E0909391018093F1
:10172000900186EC90E09093930180939201109247
:1017300095011092960110929701109298011092C3
:101740001F02109220021092210210922202109287
:101750002302109224021092250210922602109267
:101760002702109228021092290210922A02109247
:101770002B0210922C0210922D0210922E028091B8
:1017800085028C30A0F491E0980F909385028093AD
:10179000890290E0FC01EE0FFF1F8E0F9F1FFC01DE
:1017A000EF59FD4F88EB9BE09283818303C08FEF5D
:1017B00080938902809185028C30A0F491E0980F8B
:1017C000909385028093860290E0FC01EE0FFF1F4C
:1017D0008E0F9F1FFC01EF59FD4F88EB9BE092831A
:1017E000818308958FEF809386020895A1E21A2ED7
:1017F000AA1BBB1BFD010DC0AA1FBB1FEE1FFF1FB5
:10180000A217B307E407F50720F0A21BB30BE40B04
:10181000F50B661F771F881F991F1A9469F760954B
:101820007095809590959B01AC01BD01CF01089505
:10183000991B79E004C0991F961708F0961B881F22
:101840007A95C9F780950895EE0FFF1F0590F491E2
:10185000E02D099481E090E0F8940C942F0CF8941A
:02186000FFCFB8
:101862007EFF06000000000000EFDC050100E80337
:1018720001000000000B01A004A3005201D400B239
:1018820000C600564D4450565F317C315F564D4480
:1018920050560D0A00564D4450455F003A323A0008
:0A18A2007C005F564D4450450000E5
:107800000C94343C0C94513C0C94513C0C94513CE1
:107810000C94513C0C94513C0C94513C0C94513CB4
:107820000C94513C0C94513C0C94513C0C94513CA4
:107830000C94513C0C94513C0C94513C0C94513C94
:107840000C94513C0C94513C0C94513C0C94513C84
:107850000C94513C0C94513C0C94513C0C94513C74
:107860000C94513C0C94513C11241FBECFEFD8E036
:10787000DEBFCDBF11E0A0E0B1E0ECE9FFE702C060
:1078800005900D92A230B107D9F712E0A2E0B1E065
:1078900001C01D92AD30B107E1F70E942D3D0C945F
:1078A000CC3F0C94003C982F959595959595959582
:1078B000905D8F708A307CF0282F295A8091C0000B
:1078C00085FFFCCF9093C6008091C00085FFFCCF60
:1078D0002093C6000895282F205DF0CF982F809127
:1078E000C00085FFFCCF9093C6000895EF92FF92F1
:1078F0000F931F93EE24FF2487018091C00087FD22
:1079000017C00894E11CF11C011D111D81E4E8164B
:1079100082E4F8068FE0080780E0180770F3E09132
:107920000401F091050109958091C00087FFE9CF1E
:107930008091C6001F910F91FF90EF9008950E94D3
:10794000763C982F8091C00085FFFCCF9093C600B5
:1079500091362CF490330CF09053892F089597555D
:10796000892F08951F930E949F3C182F0E949F3CCF
:107970001295107F810F1F9108951F93182F882350
:1079800021F00E94763C1150E1F71F9108951F935A
:10799000182F0E94763C803249F0809103018F5F5E
:1079A000809303018530C1F01F9108958091C0003C
:1079B00085FFFCCF84E18093C6008091C00085FFE5
:1079C000FCCF1093C6008091C00085FFFCCF80E102
:1079D0008093C6001F910895E0910401F091050184
:1079E00009951F9108950E94763C803241F0809164
:1079F00003018F5F80930301853081F008958091AA
:107A0000C00085FFFCCF84E18093C6008091C00058
:107A100085FFFCCF80E18093C6000895E0910401CA
:107A2000F09105010995089540E951E08823A1F0FE
:107A30002D9A28EE33E0FA013197F1F721503040CA
:107A4000D1F72D9828EE33E0FA013197F1F7215064
:107A50003040D1F7815061F708953F924F925F9285
:107A60006F927F928F929F92AF92BF92CF92DF924E
:107A7000EF92FF920F931F93CF93DF93000080E16B
:107A80008093C4001092C50088E18093C10086E015
:107A90008093C2005098589A259A81E00E94143D24
:107AA00024E1F22E9EE1E92E85E9D82E0FE0C02ECA
:107AB00010E1B12EAA24A394B1E49B2EA6E58A2E50
:107AC000F2E57F2EE0E26E2E79E4572E63E5462E36
:107AD00050E5352E0E94763C8033B1F18133B9F107
:107AE000803409F46FC0813409F476C0823409F41B
:107AF00085C0853409F488C0803531F1823521F1A3
:107B0000813511F1853509F485C0863509F48DC0BC
:107B1000843609F496C0843709F403C1853709F423
:107B200072C1863709F466C0809103018F5F80932C
:107B30000301853079F6E0910401F0910501099582
:107B40000E94763C803351F60E94F33CC3CF0E94E2
:107B5000763C803249F78091C00085FFFCCFF092DF
:107B6000C6008091C00085FFFCCF9092C600809136
:107B7000C00085FFFCCF8092C6008091C00085FFC9
:107B8000FCCF7092C6008091C00085FFFCCF609250
:107B9000C6008091C00085FFFCCF5092C600809146
:107BA000C00085FFFCCF4092C6008091C00085FFD9
:107BB000FCCF3092C6008091C00085FFFCCFB09210
:107BC000C60088CF0E94763C863808F4BDCF0E945C
:107BD000763C0E94F33C7ECF0E94763C803809F4CC
:107BE0009CC0813809F40BC1823809F43CC1883942
:107BF00009F48FC080E00E94C73C6CCF84E10E94F2
:107C0000BD3C0E94F33C66CF85E00E94BD3C0E94D3
:107C1000F33C60CF0E94763C809306010E94763C44
:107C2000809307010E94F33C55CF0E94763C80333D
:107C300009F41DC183E00E94BD3C80E00E94C73C66
:107C400049CF0E94763C809309020E94763C809343
:107C5000080280910C028E7F80930C020E94763C79
:107C6000853409F415C18091080290910902892B8D
:107C700089F000E010E00E94763CF801E85FFE4FDA
:107C800080830F5F1F4F80910802909109020817AF
:107C9000190788F30E94763C803209F045CF809125
:107CA0000C0280FF01C16091060170910701660F0F
:107CB000771F7093070160930601A0910802B091AD
:107CC00009021097C9F0E8E0F1E09B01AD014E0F09
:107CD0005F1FF999FECF32BD21BD819180BDFA9A17
:107CE000F99A2F5F3F4FE417F50799F76A0F7B1F4B
:107CF00070930701609306018091C00085FFFCCF5F
:107D0000F092C6008091C00085FFFCCFB092C60003
:107D1000E1CE83E00E94C73CDDCE82E00E94C73CFA
:107D2000D9CE0E94763C809309020E94763C8093D3
:107D300008028091060190910701880F991F909386
:107D40000701809306010E94763C853409F4A6C0A1
:107D500080910C028E7F80930C020E94763C8032D0
:107D600009F0B8CE8091C00085FFFCCFF092C6002C
:107D7000609108027091090261157105B9F140E046
:107D800050E080910C02A82FA170B82FB27011C0E2
:107D9000BB2309F45CC0E0910601F0910701319624
:107DA000F0930701E09306014F5F5F4F46175707B7
:107DB000E8F4AA2369F3F999FECF209106013091E6
:107DC000070132BD21BDF89A90B58091C00085FFB2
:107DD000FCCF9093C6002F5F3F4F30930701209355
:107DE00006014F5F5F4F4617570718F38091C00099
:107DF00085FDE5CE8091C00085FFF8CFE0CE81E023
:107E00000E94C73C67CE0E94763C803209F08CCE3F
:107E10008091C00085FFFCCFF092C6008091C00029
:107E200085FFFCCFE092C6008091C00085FFFCCFAB
:107E3000D092C6008091C00085FFFCCFC092C600E2
:107E40008091C00085FFFCCFB092C60043CEE09188
:107E50000601F091070194918091C00085FFFCCF4D
:107E60009093C6009CCF80E10E94C73C33CE0E9415
:107E7000763C0E94763C182F0E94763C112309F430
:107E800083C0113009F484C08FE00E94C73C22CE29
:107E900080910C02816080930C02E5CE80910C02EF
:107EA000816080930C0259CF809107018823880F4D
:107EB000880B8A2180930B02809106019091070123
:107EC000880F991F90930701809306018091080203
:107ED00080FF09C080910802909109020196909359
:107EE000090280930802F894F999FECF1127E091D6
:107EF0000601F0910701C8E0D1E08091080290915D
:107F00000902103091F40091570001700130D9F34B
:107F100003E000935700E89500915700017001308D
:107F2000D9F301E100935700E89509901990009169
:107F3000570001700130D9F301E000935700E89534
:107F40001395103498F011270091570001700130FB
:107F5000D9F305E000935700E895009157000170B0
:107F60000130D9F301E100935700E895329602976A
:107F700009F0C7CF103011F00296E5CF112480919F
:107F8000C00085FFB9CEBCCE8EE10E94C73CA2CD19
:0C7F900085E90E94C73C9ECDF894FFCF0D
:027F9C00800063
:040000030000780081
:00000001FF