:100000000C9462000C948A000C948A000C943F05B6
:100010000C943F050C943F050C948A000C948A00C4
:100020000C948A000C948A000C948A000C947E0430
:100030000C948A000C948A000C948A000C948A0018
:100040000C9434040C948A000C9402040C94DC0389
:100050000C948A000C948A000C948A000C948A00F8
:100060000C948A000C948A000000000024002700F1
:100070002A0000000000250028002B0000000008D6
:10008000000201000003040700000000000000005F
:1000900000000000230026002900040404040404D6
:1000A0000404020202020202030303030303010227
:1000B00004081020408001020408102001020408F6
:1000C00010208E0511241FBECFEFD8E0DEBFCDBFBC
:1000D00011E0A0E0B1E0E8E9F6E102C005900D9280
:1000E000A632B107D9F722E0A6E2B1E001C01D9225
:1000F000AC31B207E1F710E0C2E6D0E004C02197CE
:10010000FE010E943F0BC136D107C9F70E940706C6
:100110000C944A0B0C940000CF93DF93C0E0D1E025
:1001200080913401909135016991DC01ED91FC9150
:100130000190F081E02D0995B1E0CA30DB0781F72D
:10014000DF91CF910895CF92DF92EF92FF920F93BC
:100150001F93CF93DF936C017A018B01C0E0D0E055
:10016000CE15DF0589F0D8016D918D01D601ED9195
:10017000FC910190F081E02DC6010995892B11F4C5
:100180007E0102C02196ECCFC701DF91CF911F9174
:100190000F91FF90EF90DF90CF900895FC01538D69
:1001A000448D252F30E0842F90E0821B930B541751
:1001B00010F0CF96089501970895FC01918D828DDE
:1001C000981761F0828DDF01A80FB11D5D968C91AB
:1001D000928D9F5F9F73928F90E008958FEF9FEFB6
:1001E0000895FC01918D828D981731F0828DE80F72
:1001F000F11D858D90E008958FEF9FEF0895FC012C
:10020000918D228D892F90E0805C9F4F821B9109F8
:100210008F739927089584E591E00E94FF0021E003
:10022000892B09F420E0822F0895FC01848DDF01E1
:10023000A80FB11DA35ABF4F2C91848D90E0019659
:100240008F739927848FA689B7892C93A089B18948
:100250008C9180648C93938D848D981306C0028852
:10026000F389E02D80818F7D80830895EF92FF9246
:100270000F931F93CF93DF93EC0181E0888F9B8DC9
:100280008C8D981305C0E889F989808185FD24C08B
:10029000F62E0B8D10E00F5F1F4F0F731127E02E0E
:1002A0008C8DE8120CC00FB607FCFACFE889F989EB
:1002B000808185FFF5CFCE010E941501F1CF8B8D96
:1002C000FE01E80FF11DE35AFF4FF0820B8FEA8920
:1002D000FB898081806207C0EE89FF896083E8899D
:1002E000F98980818064808381E090E0DF91CF9103
:1002F0001F910F91FF90EF900895CF93DF93EC0142
:10030000888D8823C9F0EA89FB89808185FD05C035
:10031000A889B9898C9186FD0FC00FB607FCF5CF6F
:10032000808185FFF2CFA889B9898C9185FFEDCFB7
:10033000CE010E941501E7CFDF91CF91089580E0B3
:1003400090E0892B29F00E940B0181110C94000090
:10035000089590E0FC01E458FF4F3491FC01E25510
:10036000FF4F2491FC01E656FF4FE491EE2309F480
:100370003BC0332339F1333091F038F43130A9F0F8
:10038000323001F584B58F7D12C0373091F03830AE
:10039000A1F03430B9F4809180008F7D03C080914A
:1003A00080008F77809380000DC084B58F7784BDE7
:1003B00009C08091B0008F7703C08091B0008F7D1D
:1003C0008093B000F0E0EE0FFF1FEE58FF4FA591B5
:1003D000B4918FB7F894EC91611103C020952E234E
:1003E00001C02E2B2C938FBF0895CF93DF9390E005
:1003F000FC01E255FF4F2491FC01E656FF4F84912A
:10040000882361F190E0880F991FFC01E859FF4FA4
:10041000C591D491FC01EE58FF4FA591B4916111A3
:1004200009C09FB7F8948881209582238883EC9136
:100430002E230BC0623061F49FB7F8943881822F6D
:10044000809583238883EC912E2B2C939FBF06C02D
:100450008FB7F894E8812E2B28838FBFDF91CF913F
:1004600008953FB7F89480912E0190912F01A091AB
:100470003001B091310126B5A89B05C02F3F19F07E
:100480000196A11DB11D3FBFBA2FA92F982F882714
:10049000820F911DA11DB11DBC01CD0142E0660F6F
:1004A000771F881F991F4A95D1F708958F929F92C1
:1004B000AF92BF92CF92DF92EF92FF926B017C01DD
:1004C0000E9431024B015C01C114D104E104F1042A
:1004D000F1F00E943102DC01CB0188199909AA09C7
:1004E000BB09883E9340A105B10570F321E0C21A13
:1004F000D108E108F10888EE880E83E0981EA11C5F
:10050000B11CC114D104E104F10419F7DDCFFF904F
:10051000EF90DF90CF90BF90AF909F908F90089515
:100520002FB7F89460912A0170912B0180912C01D2
:1005300090912D012FBF0895FC0190819C3080F592
:10054000818128E830E0281B310987FD3395220F8F
:10055000331F220F331F621773077CF0828128E557
:1005600032E0281B310987FD3395220F331F220FFC
:10057000331F621773070CF49B0122503109220FBD
:10058000331F4FB7F894892F90E0FC01EE0FFF1F47
:100590008E0F9F1FFC01EF50FE4F328321834FBF10
:1005A00008951F93CF93DF93EC01162F88818C3031
:1005B00008F04EC061E0812F0E94F5018881E82F8C
:1005C000F0E09F01220F331FE20FF31FEF50FE4FA9
:1005D0001F739081907C192B108319821A826CE012
:1005E0000E94330B9CE0899FB001112440E050E051
:1005F0009A01260F371FF901EE0FFF1F2E0F3F1F25
:10060000F901EF50FE4F908196FD16C04F5F5F4F8E
:100610004C30510569F781110FC01092800082E0C3
:10062000809381001092850010928400B19A80918D
:100630006F00826080936F00E881F0E0CF01880F47
:10064000991FE80FF91FEF50FE4F8081806480836F
:100650008881DF91CF911F910895E1E0F1E080E082
:1006600090E02191820F911D21E0E730F207C9F758
:1006700091958195910990930701809308010895C0
:10068000E0E0F1E08383158216820E942D03E09161
:100690003201F09133010994E0E0F1E08383758346
:1006A00066830E942D03E0913201F0913301099499
:1006B000089580E090E008950F931F9390E0FC016F
:1006C000E255FF4FA491FC01E656FF4FE491F0E0A4
:1006D000EE0FFF1FE057FF4F859194918A019B0118
:1006E0003F704A2F6A2F0E944905611571058105E7
:1006F000910549F0DC01CB010196A11DB11DBC01A2
:10070000CD019F7003C060E070E0CB011F910F919D
:1007100008958F929F92AF92BF920F931F93CF93A2
:10072000DF93CDB7DEB7A1970FB6F894DEBF0FBE4B
:10073000CDBF19A2423008F44AE08E010F5D1F4F71
:10074000842E912CA12CB12CA50194010E94110B97
:10075000E62FB901CA0101501109EA3014F4E05D35
:1007600001C0E95CD801EC93232B242B252B61F7E6
:100770000115110571F0F80101900020E9F731979A
:10078000AF01401B510BB80184E591E00E94A3002A
:1007900002C080E090E0A1960FB6F894DEBF0FBED5
:1007A000CDBFDF91CF911F910F91BF90AF909F90E0
:1007B0008F9008950E94450B1F920F920FB60F92D3
:1007C00011242F933F934F935F936F937F938F9356
:1007D0009F93AF93BF93EF93FF9384E591E00E94C3
:1007E0001501FF91EF91BF91AF919F918F917F91F3
:1007F0006F915F914F913F912F910F900FBE0F908E
:100800001F9018951F920F920FB60F9211242F93DD
:100810008F939F93EF93FF93E0916401F0916501B3
:100820008081E0916A01F0916B0182FD12C090819C
:1008300080916D018F5F8F7320916E01821751F04F
:10084000E0916D01F0E0EC5AFE4F958F80936D01C1
:1008500001C08081FF91EF919F918F912F910F9017
:100860000FBE0F901F9018951F920F920FB60F9208
:1008700011242F933F938F939F93AF93BF938091B6
:100880002A0190912B01A0912C01B0912D01309162
:10089000290123E0230F2D3720F40196A11DB11D5E
:1008A00005C026E8230F0296A11DB11D2093290142
:1008B00080932A0190932B01A0932C01B0932D01DA
:1008C00080912E0190912F01A0913001B0913101C2
:1008D0000196A11DB11D80932E0190932F01A0932D
:1008E0003001B0933101BF91AF919F918F913F91B2
:1008F0002F910F900FBE0F901F9018951F920F927F
:100900000FB60F9211242F933F934F935F936F93E2
:100910007F938F939F93AF93BF93EF93FF938091B8
:10092000280187FF05C010928500109284001BC02B
:1009300020912801022E000C330B8091150290E0CB
:100940002817390784F480912801082E000C990B90
:10095000FC01EE0FFF1F8E0F9F1FFC01EF50FE4F9B
:10096000808186FD15C0809128018F5F80932801CA
:1009700020912801022E000C330B8091150290E08B
:1009800028173907C4F4809128018C3064F113C012
:1009900080912801082E000C990BFC01EE0FFF1F1F
:1009A0008E0F9F1FFC01EF50FE4F808160E08F7320
:1009B0000E94A901D8CF809184009091850004966F
:1009C00080349C4918F480E49CE905C0809184003F
:1009D00090918500049690938900809388008FEF12
:1009E000809328013BC02091840030918500809144
:1009F0002801082E000C990BFC01EE0FFF1F8E0F33
:100A00009F1FFC01EF50FE4F81819281820F931F47
:100A1000909389008093880080912801082E000C13
:100A2000990BFC01EE0FFF1F8E0F9F1FFC01EF5073
:100A3000FE4F808186FF12C080912801082E000C95
:100A4000990BFC01EE0FFF1F8E0F9F1FFC01EF5053
:100A5000FE4F808161E08F730E94A901FF91EF91A9
:100A6000BF91AF919F918F917F916F915F914F91C6
:100A70003F912F910F900FBE0F901F9018951F92CE
:100A80000F920FB60F9211240F900FBE0F901F9070
:100A90001895CF92DF92EF92FF920F931F93E82F5A
:100AA000F92F05C0015011092109310961F1908127
:100AB00096239417B9F305C0015011092109310992
:100AC00011F1908196239413F7CFC12CD12CE12CF6
:100AD000F12C0AC08FEFC81AD80AE80AF80A0C15D8
:100AE0001D052E053F0579F080818623841791F33B
:100AF0006C2D7D2D8E2D9F2D1F910F91FF90EF90CE
:100B0000DF90CF90089560E070E080E090E01F916A
:100B10000F91FF90EF90DF90CF90089510925701C2
:100B20001092560188EE93E0A0E0B0E08093580167
:100B300090935901A0935A01B0935B0185E191E034
:100B4000909355018093540185EC90E0909361015E
:100B50008093600184EC90E0909363018093620144
:100B600080EC90E0909365018093640181EC90E0CB
:100B7000909367018093660182EC90E09093690105
:100B80008093680186EC90E090936B0180936A01FA
:100B900010926D0110926E0110926F01109270010F
:100BA000809115028C30A0F491E0980F909315027B
:100BB0008093190290E0FC01EE0FFF1F8E0F9F1F24
:100BC000FC01EF50FE4F88EB9BE09283818303C0D2
:100BD0008FEF80931902809115028C30A0F491E080
:100BE000980F909315028093160290E0FC01EE0F8F
:100BF000FF1F8E0F9F1FFC01EF50FE4F88EB9BE005
:100C00009283818308958FEF8093160208957894DC
:100C100084B5826084BD84B5816084BD85B5826001
:100C200085BD85B5816085BD80916E0081608093B2
:100C30006E0010928100809181008260809381001B
:100C4000809181008160809381008091800081602B
:100C5000809380008091B10084608093B100809186
:100C6000B00081608093B00080917A0084608093AE
:100C70007A0080917A00826080937A0080917A0075
:100C8000816080937A0080917A00806880937A00F6
:100C90001092C100E0916401F091650182E08083CF
:100CA000E0916001F09161011082E0916201F091A8
:100CB00063018FEC808310926C01E0916801F091E8
:100CC000690186E08083E0916601F091670180818F
:100CD00080618083E0916601F09167018081886086
:100CE0008083E0916601F091670180818068808354
:100CF000E0916601F091670180818F7D808384E5BA
:100D000091E090933501809334018CE890E09093CA
:100D100033018093320169E170E086E00E944C0368
:100D2000C2E061E08C2F0E94F501CF5FC830C9F7A7
:100D300061E087E00E94A90161E086E00E94A901CC
:100D400060E082E00E94A90160E083E00E94A901C6
:100D500060E084E00E94A90160E085E00E94A901B2
:100D600060E08CE00E94F50160E089E00E94F501FE
:100D700060E08AE00E94F50168E070E089E192E0BD
:100D80000E94D1026BE070E086E192E00E94D10205
:100D900060910E0170910F0189E192E00E949C0226
:100DA00060910A0170910B0186E192E00E949C0221
:100DB00065E070E080E090E00E94560248EA51E66B
:100DC00060E070E089E00E945C03609346017093EC
:100DD00047018093480190934901672B682B692B49
:100DE00031F48FEF9FEF90934D0180934C0165E0BC
:100DF00070E080E090E00E94560248EA51E660E030
:100E000070E08AE00E945C036093460170934701A2
:100E10008093480190934901672B682B692B31F42B
:100E20008FEF9FEF90934F0180934E0165E070E04C
:100E300080E090E00E94560248EA51E660E070E0EF
:100E40008CE00E945C03609346017093470180939D
:100E5000480190934901672B682B692B31F48FEF80
:100E60009FEF90934B0180934A0164E670E080E02D
:100E700090E00E94560281E08093100103E010E0B0
:100E8000E2E0EE2EF12CCC24C394D12C22242A941F
:100E9000322CB3E3AB2EB12CC1E18C2E912CC0913E
:100EA0005001D09151010E949002E2969E01261BB2
:100EB000370BB90137FD06C0072E000C880B990BC4
:100EC0000E9456020E94900260935001709351015B
:100ED000809352019093530180914E0190914F0164
:100EE000019609F41FC140E452E46FE070E08AE02B
:100EF0000E945C0360934601709347018093480110
:100F0000909349012B013C014FEE441A42E0540AF0
:100F1000610871082FE8421621E05206610471044D
:100F2000A8F480914E0190914F01019751F00E94D9
:100F3000900260933601709337018093380190934B
:100F40003901D0924F01C0924E0175C02B013C0176
:100F500039E7431A35E0530A6108710847EC441633
:100F6000510461047104A0F580914E0190914F01EC
:100F70008330910509F45FC0892B09F45CC00E949D
:100F80009002409036015090370160903801709087
:100F90003901DC01CB0184199509A609B709893CFF
:100FA0009105A105B10528F010934F0100934E0162
:100FB00004C010924F0110924E010E949002609363
:100FC000360170933701809338019093390133C013
:100FD0002B013C012BE3421A27E0520A61087108F9
:100FE0003FE8431631E0530661047104A8F4809190
:100FF0004E0190914F01029751F00E949002609330
:101000003601709337018093380190933901F09243
:101010004F01E0924E010FC0DC01CB018E5E924089
:10102000A109B1098D3D9540A105B10520F01093AE
:101030004F0100934E0180914C0190914D01039717
:1010400009F470C080914E0190914F01813091055B
:1010500089F144F48F3F2FEF920709F463C0892B85
:1010600041F05AC082309105E1F1039709F45AC06A
:1010700053C060910A0170910B01673E35E0730720
:101080001CF06451710943C0623D45E074071CF4D3
:101090006C5E7F4F3CC06C3D754009F443C01093BB
:1010A0004F0100934E018CED95E090930B018093DE
:1010B0000A0132C060910A0170910B01603699E01B
:1010C000790764F06036794069F180E699E09093A1
:1010D0000B0180930A0160E679E020C0615F7F4FD9
:1010E00016C060910A0170910B01693592E0790791
:1010F00064F468357240B1F088E592E090930B019A
:1011000080930A0168E572E009C06F50710970931D
:101110000B0160930A0102C06CED75E086E192E07C
:101120000E949C0280914C0190914D01019609F41E
:101130009FC140E452E46FE070E089E00E945C03EC
:101140006093460170934701809348019093490151
:101150002B013C013FEE431A32E0530A610871084B
:101160004FE8441641E054066104710428F41092DB
:101170004D0110924C0139C02B013C0129E7421A64
:1011800025E0520A6108710837EC431651046104E6
:10119000710428F4D0924D01C0924C0126C02B015D
:1011A0003C014BE3441A47E0540A610871082FE8F8
:1011B000421621E052066104710428F4F0924D01B8
:1011C000E0924C0112C0DC01CB018E5E9240A1097D
:1011D000B1098D3D9540A105B10538F030924D0122
:1011E00020924C0181E080931001C0914C01D0917C
:1011F0004D01209711F4109210018091100181117E
:1012000037C1C130D10509F45AC0C230D10509F443
:10121000D5C0CD2B09F02CC161E086E00E94A90168
:101220001092450110924401809142019091430136
:101230000097D1F1C0910E01D0910F01C93E43E05A
:10124000D407ECF0BE016951710989E192E00E9476
:101250009C0264E170E080E090E00E945602BE01D2
:101260006253710970930F0160930E0189E192E05E
:101270000E949C02109343010093420115C0039702
:1012800099F41092430110924201C83ED34061F09C
:1012900028EE33E030930F0120930E0168EE73E0E7
:1012A00089E192E00E949C020E94900260933E01BC
:1012B00070933F018093400190934101D9C061E058
:1012C00086E00E94A9018091420190914301823001
:1012D000910509F4CDC060900E0170900F0130EDC2
:1012E000631637E07306B4F5892B29F461E070E0EA
:1012F00082E10E944C03D0924301C0924201C0910E
:101300000E01D0910F01BE01675E7F4F89E192E02F
:101310000E949C0264E170E080E090E00E9456022E
:10132000BE016E5C7F4F70930F0160930E0189E1E7
:1013300092E00E949C020E94900260933E01709392
:101340003F0180934001909341011092450110921A
:1013500044018EC0019709F08BC00E949002209139
:101360003E0130913F014091400150914101DC012B
:10137000CB01821B930BA40BB50B893E9340A105B7
:10138000B10508F475C0F0924301E0924201D09398
:101390004501C093440180ED681687E0780609F4A2
:1013A00067C020ED37E030930F0120930E0160ED10
:1013B00077E089E192E00E949C025AC0809142014C
:1013C00090914301029709F053C08091440190919C
:1013D0004501019709F04CC0C0910C01D0910D015D
:1013E000CE01019780319105D8F5BC016170772756
:1013F00060933D019C0136952795422F4170742ED4
:1014000040933C019C013695279536952795422FB0
:101410004170542E40933B0173E0969587957A95E1
:10142000E1F7282F2170622E20933A01219682E065
:101430000E94A901672D83E00E94A901652D84E027
:101440000E94A901662D85E00E94A90160E086E066
:101450000E94A90168EB7BE080E090E00E945602C8
:1014600061E086E00E94A901D0930D01C0930C01B8
:1014700080914A0190914B01019609F4C0C040E46B
:1014800052E46FE070E08CE00E945C0360934601E0
:1014900070934701809348019093490120914A013C
:1014A00030914B01207F33272031310509F4AAC048
:1014B0002B013C014FEE441A42E0540A61087108C6
:1014C0004FE8441641E054066104710428F49092F8
:1014D0004B0180924A013CC020333105A1F06937AD
:1014E00045E074078105910558F0603446E07407C3
:1014F0008105910528F4B0924B01A0924A0128C0C1
:1015000020323105B1F02B013C012BE3421A27E0D8
:10151000520A610871083FE8431631E0530661043E
:10152000710438F482E290E090934B0180934A0179
:101530000FC0AB01BC014E5E5240610971094D3DC7
:1015400055406105710520F010924B0110924A013F
:10155000C0914A01D0914B0180914C0190914D0175
:101560001816190634F480911001811102C0C0E0F0
:10157000D0E03E012FE062227724B301072C000C5B
:10158000880B990B4AE00E94890342E050E063E235
:1015900071E084E591E00E94A30031E063167104DC
:1015A000A1F01CF4672829F121C082E068167104BB
:1015B000E9F481E00E94400368EC70E080E090E094
:1015C0000E94560261E070E00DC062E070E082E1CE
:1015D0000E944C0368EC70E080E090E00E945602AC
:1015E00060E070E089E10E944C0303C086E10E9444
:1015F0004003C07FDD27D0934B01C0934A010E9476
:101600009F014DCC693725E072078105910508F4EB
:101610007ACF603436E073078105910508F073CF07
:101620006ACFA1E21A2EAA1BBB1BFD010DC0AA1F87
:10163000BB1FEE1FFF1FA217B307E407F50720F03B
:10164000A21BB30BE40BF50B661F771F881F991FB6
:101650001A9469F760957095809590959B01AC01FF
:10166000BD01CF010895991B79E004C0991F961719
:1016700008F0961B881F7A95C9F780950895EE0F9C
:10168000FF1F0590F491E02D099481E090E0F8941B
:081690000C944A0BF894FFCF03
:101698007EFF06000000000000EFDC050100E80303
:1016A80001000000003601A300CE007D01FF00DD2F
:0616B80000F1000D0A0024
:00000001FF
