:100000000C9462000C948A000C948A000C943F05B6
:100010000C943F050C943F050C948A000C948A00C4
:100020000C948A000C948A000C948A000C947E0430
:100030000C948A000C948A000C948A000C948A0018
:100040000C9434040C948A000C9402040C94DC0389
:100050000C948A000C948A000C948A000C948A00F8
:100060000C948A000C948A000000000024002700F1
:100070002A0000000000250028002B0000000008D6
:10008000000201000003040700000000000000005F
:1000900000000000230026002900040404040404D6
:1000A0000404020202020202030303030303010227
:1000B00004081020408001020408102001020408F6
:1000C00010208E0511241FBECFEFD8E0DEBFCDBFBC
:1000D00011E0A0E0B1E0E8EEF4E102C005900D927D
:1000E000A632B107D9F722E0A6E2B1E001C01D9225
:1000F000A831B207E1F710E0C2E6D0E004C02197D2
:10010000FE010E94670AC136D107C9F70E9407069F
:100110000C94720A0C940000CF93DF93C0E0D1E0FE
:1001200080913401909135016991DC01ED91FC9150
:100130000190F081E02D0995B1E0CA30DB0781F72D
:10014000DF91CF910895CF92DF92EF92FF920F93BC
:100150001F93CF93DF936C017A018B01C0E0D0E055
:10016000CE15DF0589F0D8016D918D01D601ED9195
:10017000FC910190F081E02DC6010995892B11F4C5
:100180007E0102C02196ECCFC701DF91CF911F9174
:100190000F91FF90EF90DF90CF900895FC01538D69
:1001A000448D252F30E0842F90E0821B930B541751
:1001B00010F0CF96089501970895FC01918D828DDE
:1001C000981761F0828DDF01A80FB11D5D968C91AB
:1001D000928D9F5F9F73928F90E008958FEF9FEFB6
:1001E0000895FC01918D828D981731F0828DE80F72
:1001F000F11D858D90E008958FEF9FEF0895FC012C
:10020000918D228D892F90E0805C9F4F821B9109F8
:100210008F739927089580E591E00E94FF0021E007
:10022000892B09F420E0822F0895FC01848DDF01E1
:10023000A80FB11DA35ABF4F2C91848D90E0019659
:100240008F739927848FA689B7892C93A089B18948
:100250008C9180648C93938D848D981306C0028852
:10026000F389E02D80818F7D80830895EF92FF9246
:100270000F931F93CF93DF93EC0181E0888F9B8DC9
:100280008C8D981305C0E889F989808185FD24C08B
:10029000F62E0B8D10E00F5F1F4F0F731127E02E0E
:1002A0008C8DE8120CC00FB607FCFACFE889F989EB
:1002B000808185FFF5CFCE010E941501F1CF8B8D96
:1002C000FE01E80FF11DE35AFF4FF0820B8FEA8920
:1002D000FB898081806207C0EE89FF896083E8899D
:1002E000F98980818064808381E090E0DF91CF9103
:1002F0001F910F91FF90EF900895CF93DF93EC0142
:10030000888D8823C9F0EA89FB89808185FD05C035
:10031000A889B9898C9186FD0FC00FB607FCF5CF6F
:10032000808185FFF2CFA889B9898C9185FFEDCFB7
:10033000CE010E941501E7CFDF91CF91089580E0B3
:1003400090E0892B29F00E940B0181110C94000090
:10035000089590E0FC01E458FF4F3491FC01E25510
:10036000FF4F2491FC01E656FF4FE491EE2309F480
:100370003BC0332339F1333091F038F43130A9F0F8
:10038000323001F584B58F7D12C0373091F03830AE
:10039000A1F03430B9F4809180008F7D03C080914A
:1003A00080008F77809380000DC084B58F7784BDE7
:1003B00009C08091B0008F7703C08091B0008F7D1D
:1003C0008093B000F0E0EE0FFF1FEE58FF4FA591B5
:1003D000B4918FB7F894EC91611103C020952E234E
:1003E00001C02E2B2C938FBF0895CF93DF9390E005
:1003F000FC01E255FF4F2491FC01E656FF4F84912A
:10040000882361F190E0880F991FFC01E859FF4FA4
:10041000C591D491FC01EE58FF4FA591B4916111A3
:1004200009C09FB7F8948881209582238883EC9136
:100430002E230BC0623061F49FB7F8943881822F6D
:10044000809583238883EC912E2B2C939FBF06C02D
:100450008FB7F894E8812E2B28838FBFDF91CF913F
:1004600008953FB7F89480912E0190912F01A091AB
:100470003001B091310126B5A89B05C02F3F19F07E
:100480000196A11DB11D3FBFBA2FA92F982F882714
:10049000820F911DA11DB11DBC01CD0142E0660F6F
:1004A000771F881F991F4A95D1F708958F929F92C1
:1004B000AF92BF92CF92DF92EF92FF926B017C01DD
:1004C0000E9431024B015C01C114D104E104F1042A
:1004D000F1F00E943102DC01CB0188199909AA09C7
:1004E000BB09883E9340A105B10570F321E0C21A13
:1004F000D108E108F10888EE880E83E0981EA11C5F
:10050000B11CC114D104E104F10419F7DDCFFF904F
:10051000EF90DF90CF90BF90AF909F908F90089515
:100520002FB7F89460912A0170912B0180912C01D2
:1005300090912D012FBF0895FC0190819C3080F592
:10054000818128E830E0281B310987FD3395220F8F
:10055000331F220F331F621773077CF0828128E557
:1005600032E0281B310987FD3395220F331F220FFC
:10057000331F621773070CF49B0122503109220FBD
:10058000331F4FB7F894892F90E0FC01EE0FFF1F47
:100590008E0F9F1FFC01E351FE4F328321834FBF1B
:1005A00008951F93CF93DF93EC01162F88818C3031
:1005B00008F04EC061E0812F0E94F5018881E82F8C
:1005C000F0E09F01220F331FE20FF31FE351FE4FB4
:1005D0001F739081907C192B108319821A826CE012
:1005E0000E945B0A9CE0899FB001112440E050E02A
:1005F0009A01260F371FF901EE0FFF1F2E0F3F1F25
:10060000F901E351FE4F908196FD16C04F5F5F4F99
:100610004C30510569F781110FC01092800082E0C3
:10062000809381001092850010928400B19A80918D
:100630006F00826080936F00E881F0E0CF01880F47
:10064000991FE80FF91FE351FE4F8081806480837A
:100650008881DF91CF911F910895E1E0F1E080E082
:1006600090E02191820F911D21E0E730F207C9F758
:1006700091958195910990930701809308010895C0
:10068000E0E0F1E08383158216820E942D03E09161
:100690003201F09133010994E0E0F1E08383758346
:1006A00066830E942D03E0913201F0913301099499
:1006B000089580E090E008958F929F92AF92BF924C
:1006C0000F931F93CF93DF93CDB7DEB7A1970FB6EC
:1006D000F894DEBF0FBECDBF19A2423008F44AE045
:1006E0008E010F5D1F4F842E912CA12CB12CA501E2
:1006F00094010E94390AE62FB901CA01015011097B
:10070000EA3014F4E05D01C0E95CD801EC93232BDE
:10071000242B252B61F70115110571F0F8010190CB
:100720000020E9F73197AF01401B510BB80180E57C
:1007300091E00E94A30002C080E090E0A1960FB675
:10074000F894DEBF0FBECDBFDF91CF911F910F9107
:10075000BF90AF909F908F9008950F931F9390E05C
:10076000FC01E255FF4FA491FC01E656FF4FE491D6
:10077000F0E0EE0FFF1FE057FF4F859194918A0143
:100780009B013F704A2F6A2F0E9449056115710530
:100790008105910549F0DC01CB010196A11DB11D38
:1007A000BC01CD019F7003C060E070E0CB011F91E0
:1007B0000F9108950E946D0A1F920F920FB60F922B
:1007C00011242F933F934F935F936F937F938F9356
:1007D0009F93AF93BF93EF93FF9380E591E00E94C7
:1007E0001501FF91EF91BF91AF919F918F917F91F3
:1007F0006F915F914F913F912F910F900FBE0F908E
:100800001F9018951F920F920FB60F9211242F93DD
:100810008F939F93EF93FF93E0916001F0916101BB
:100820008081E0916601F091670182FD12C09081A4
:10083000809169018F5F8F7320916A01821751F057
:10084000E0916901F0E0E05BFE4F958F80936901D4
:1008500001C08081FF91EF919F918F912F910F9017
:100860000FBE0F901F9018951F920F920FB60F9208
:1008700011242F933F938F939F93AF93BF938091B6
:100880002A0190912B01A0912C01B0912D01309162
:10089000290123E0230F2D3720F40196A11DB11D5E
:1008A00005C026E8230F0296A11DB11D2093290142
:1008B00080932A0190932B01A0932C01B0932D01DA
:1008C00080912E0190912F01A0913001B0913101C2
:1008D0000196A11DB11D80932E0190932F01A0932D
:1008E0003001B0933101BF91AF919F918F913F91B2
:1008F0002F910F900FBE0F901F9018951F920F927F
:100900000FB60F9211242F933F934F935F936F93E2
:100910007F938F939F93AF93BF93EF93FF938091B8
:10092000280187FF05C010928500109284001BC02B
:1009300020912801022E000C330B8091110290E0CF
:100940002817390784F480912801082E000C990B90
:10095000FC01EE0FFF1F8E0F9F1FFC01E351FE4FA6
:10096000808186FD15C0809128018F5F80932801CA
:1009700020912801022E000C330B8091110290E08F
:1009800028173907C4F4809128018C3064F113C012
:1009900080912801082E000C990BFC01EE0FFF1F1F
:1009A0008E0F9F1FFC01E351FE4F808160E08F732B
:1009B0000E94A901D8CF809184009091850004966F
:1009C00080349C4918F480E49CE905C0809184003F
:1009D00090918500049690938900809388008FEF12
:1009E000809328013BC02091840030918500809144
:1009F0002801082E000C990BFC01EE0FFF1F8E0F33
:100A00009F1FFC01E351FE4F81819281820F931F52
:100A1000909389008093880080912801082E000C13
:100A2000990BFC01EE0FFF1F8E0F9F1FFC01E3517E
:100A3000FE4F808186FF12C080912801082E000C95
:100A4000990BFC01EE0FFF1F8E0F9F1FFC01E3515E
:100A5000FE4F808161E08F730E94A901FF91EF91A9
:100A6000BF91AF919F918F917F916F915F914F91C6
:100A70003F912F910F900FBE0F901F9018951F92CE
:100A80000F920FB60F9211240F900FBE0F901F9070
:100A90001895CF92DF92EF92FF920F931F93E82F5A
:100AA000F92F05C0015011092109310961F1908127
:100AB00096239417B9F305C0015011092109310992
:100AC00011F1908196239413F7CFC12CD12CE12CF6
:100AD000F12C0AC08FEFC81AD80AE80AF80A0C15D8
:100AE0001D052E053F0579F080818623841791F33B
:100AF0006C2D7D2D8E2D9F2D1F910F91FF90EF90CE
:100B0000DF90CF90089560E070E080E090E01F916A
:100B10000F91FF90EF90DF90CF90089510925301C6
:100B20001092520188EE93E0A0E0B0E0809354016F
:100B300090935501A0935601B093570185E191E040
:100B4000909351018093500185EC90E090935D016A
:100B500080935C0184EC90E090935F0180935E0150
:100B600080EC90E0909361018093600181EC90E0D3
:100B7000909363018093620182EC90E09093650111
:100B80008093640186EC90E0909367018093660106
:100B90001092690110926A0110926B0110926C011F
:100BA000809111028C30A0F491E0980F9093110283
:100BB0008093150290E0FC01EE0FFF1F8E0F9F1F28
:100BC000FC01E351FE4F88EB9BE09283818303C0DD
:100BD0008FEF80931502809111028C30A0F491E088
:100BE000980F909311028093120290E0FC01EE0F97
:100BF000FF1F8E0F9F1FFC01E351FE4F88EB9BE010
:100C00009283818308958FEF8093120208957894E0
:100C100084B5826084BD84B5816084BD85B5826001
:100C200085BD85B5816085BD80916E0081608093B2
:100C30006E0010928100809181008260809381001B
:100C4000809181008160809381008091800081602B
:100C5000809380008091B10084608093B100809186
:100C6000B00081608093B00080917A0084608093AE
:100C70007A0080917A00826080937A0080917A0075
:100C8000816080937A0080917A00806880937A00F6
:100C90001092C100E0916001F091610182E08083D7
:100CA000E0915C01F0915D011082E0915E01F091B4
:100CB0005F018FEC808310926801E0916401F091F4
:100CC000650186E08083E0916201F091630180819B
:100CD00080618083E0916201F0916301808188608E
:100CE0008083E0916201F09163018081806880835C
:100CF000E0916201F091630180818F7D808380E5C6
:100D000091E090933501809334018CE890E09093CA
:100D100033018093320169E170E086E00E944C0368
:100D2000C2E061E08C2F0E94F501CF5FC830C9F7A7
:100D300061E087E00E94A90161E086E00E94A901CC
:100D400060E082E00E94A90160E083E00E94A901C6
:100D500060E084E00E94A90160E085E00E94A901B2
:100D600060E08CE00E94F50160E089E00E94F501FE
:100D700060E08AE00E94F50168E070E085E192E0C1
:100D80000E94D1026BE070E082E192E00E94D10209
:100D900060910E0170910F0185E192E00E949C022A
:100DA00060910A0170910B0182E192E00E949C0225
:100DB00081E08093100160ED77E080E090E00E9498
:100DC0005602AA24AA94BA2C02E010E0EE24E3947E
:100DD000F12C23E0C22ED12C32E2432E512C40EDD7
:100DE000242E47E0342E6FE070E080E090E00E9417
:100DF000560240E355E760E070E089E00E94AD03F1
:100E000060933A0170933B0180933C0190933D01C4
:100E10009B01AC012F5E3240410951092F3831400E
:100E20004105510528F410924D0110924C0124C047
:100E30009B01AC012957354041095109273C310537
:100E40004105510528F4F0924D01E0924C0114C087
:100E5000DC01CB018B539740A109B1098F38914038
:100E6000A105B10528F410934D0100934C0104C075
:100E7000B0924D01A0924C016FE070E080E090E0F4
:100E80000E94560240E452E46FE070E08AE00E9463
:100E9000AD0360933A0170933B0180933C019093C2
:100EA0003D019B01AC012F5E3240410951092F38B1
:100EB000314041055105A8F480913E0190913F01D8
:100EC000019751F00E9490026093360170933701B0
:100ED0008093380190933901F0923F01E0923E01F6
:100EE00063C09B01AC012957354041095109273C9A
:100EF000310541055105A0F580913E0190913F01DA
:100F00008330910509F450C0892B09F44DC00E942B
:100F10009002209136013091370140913801509173
:100F20003901DC01CB01821B930BA40BB50B853F70
:100F30009140A105B10528F0D0923F01C0923E0139
:100F400004C010923F0110923E010E9490026093F3
:100F5000360170933701809338019093390124C092
:100F6000DC01CB018B539740A109B1098F38914027
:100F7000A105B105A8F480913E0190913F0102972F
:100F800051F00E9490026093360170933701809374
:100F900038019093390110933F0100933E0104C042
:100FA000B0923F01A0923E016FE070E080E090E0DF
:100FB0000E94560240E355E760E070E08CE00E943A
:100FC000AD0360933A0170933B0180933C01909391
:100FD0003D0120914E0130914F01207F3327203178
:100FE000310509F437C23B014C01EFEE6E1AE2E025
:100FF0007E0A810891084FE8641641E07406810476
:10100000910418F481E190E011C020333105B1F072
:101010006937E5E07E078105910568F0603446E0B8
:1010200074078105910538F483E390E090934F01B4
:1010300080934E0112C02032310579F0AB01BC0122
:101040004B535740610971094F3851406105710593
:1010500020F450924F0140924E0180914C019091AA
:101060004D0197FF04C0E1E0E093100104C0892B1B
:1010700011F41092100180911001882321F0109238
:101080004D0110924C0180904C0190904D0123E055
:101090008216910409F469C080913E0190913F014C
:1010A0008130910551F11CF4892B41F058C08230F8
:1010B0009105D1F1039709F458C051C060910A011C
:1010C00070910B01673E45E074070CF041C0623D32
:1010D00085E078071CF4665F7F4F3CC06C3D75402F
:1010E00009F443C0D0923F01C0923E018CED95E0DF
:1010F00090930B0180930A0132C060910A017091B4
:101100000B016036E9E07E0764F06036794069F1F2
:1011100080E699E090930B0180930A0160E679E004
:1011200020C06C5E7F4F16C060910A0170910B0168
:10113000693592E0790764F468357240B1F088E56A
:1011400092E090930B0180930A0168E572E009C078
:101150006451710970930B0160930A0102C06CED38
:1011600075E082E192E00E949C02C0914E01D09114
:101170004F018928A9F5CE018F70992781309105FB
:1011800091F01CF4892B49F11FC00297E9F481E02A
:101190000E94400364E170E080E090E00E9456020B
:1011A00061E070E00DC062E070E082E10E944C03FB
:1011B00064E170E080E090E00E94560260E070E040
:1011C00089E10E944C0309C086E10E94400364E16A
:1011D00070E080E090E00E945602C07FDD2702C0F0
:1011E000C0E0D0E0D0934F01C0934E018091100138
:1011F00081112DC180914C0190914D01813091055B
:1012000009F44CC08230910509F4BEC0892B09F065
:101210001EC161E086E00E94A90110924B0110926C
:101220004A018091480190914901009761F16091D4
:101230000E0170910F01693EE3E07E077CF062537E
:10124000710970930F0160930E0185E192E00E9495
:101250009C02D0924901C092480115C0039799F4AD
:101260001092490110924801683E734061F088EE87
:1012700093E090930F0180930E0168EE73E085E197
:1012800092E00E949C020E9490026093440170933D
:1012900045018093460190934701D9C061E086E003
:1012A0000E94A901C0914801D0914901C230D105E5
:1012B00009F4CDC080900E0190900F0190ED891639
:1012C00097E0990674F5CD2B59F461E070E082E166
:1012D0000E944C0364E170E080E090E00E945602BE
:1012E000F0924901E092480160910E0170910F0166
:1012F0006E5C7F4F70930F0160930E0185E192E069
:101300000E949C020E9490026093440170934501E8
:10131000809346019093470110924B0110924A012D
:1013200096C0C130D10509F092C00E949002209170
:101330004401309145014091460150914701DC0143
:10134000CB01821B930BA40BB50B893E9340A105E7
:10135000B10508F47CC01093490100934801D09373
:101360004B01C0934A0120ED821627E0920609F452
:101370006EC030920F0120920E0160ED77E085E1A2
:1013800092E00E949C0263C08091480190914901C3
:10139000029709F05CC080914A0190914B0101973E
:1013A00009F055C0C0910C01D0910D01CE010197FB
:1013B0008031910508F043C09C01217033272093B0
:1013C000430181FB992790F99093420182FB992771
:1013D00090F99093410183FB882780F98093400125
:1013E0002196BE010D2E000C880B990B4AE00E943D
:1013F0005C0342E050E063E271E080E591E00E942E
:10140000A3006091430182E00E94A9016091420122
:1014100083E00E94A9016091410184E00E94A9013A
:101420006091400185E00E94A90160E086E00E9491
:10143000A90168EB7BE080E090E00E94560261E049
:1014400086E00E94A901D0930D01C0930C010E9477
:101450009F01C9CC693745E074078105910508F4FF
:10146000EDCD6034E6E07E078105910508F4DCCD22
:10147000E5CDA1E21A2EAA1BBB1BFD010DC0AA1FC0
:10148000BB1FEE1FFF1FA217B307E407F50720F0ED
:10149000A21BB30BE40BF50B661F771F881F991F68
:1014A0001A9469F760957095809590959B01AC01B1
:1014B000BD01CF010895991B79E004C0991F9617CB
:1014C00008F0961B881F7A95C9F780950895EE0F4E
:1014D000FF1F0590F491E02D099481E090E0F894CD
:0814E0000C94720AF894FFCF8E
:1014E8007EFF06000000000000EFDC050100E803B5
:1014F80001000000003601A300CE007D01FF00DDE1
:0615080000F1000D0A00D5
:00000001FF
