:100000000C945D000C9485000C9485000C94850084
:100010000C9485000C9485000C9485000C9485004C
:100020000C9485000C9485000C9485000C943A0384
:100030000C9485000C9485000C9485000C9485002C
:100040000C94F0020C9485000C94BE020C9498025F
:100050000C9485000C9485000C9485000C9485000C
:100060000C9485000C9485000000000025002800F9
:100070002B0000000008000201000003040700003C
:1000800000000000000000000000230026002900FE
:10009000040404040404040402020202020203032E
:1000A0000303030301020408102040800102040836
:1000B0001020010204081020400411241FBECFEFBD
:1000C000D8E0DEBFCDBF11E0A0E0B1E0EEEBFDE097
:1000D00002C005900D92A833B107D9F722E0A8E33A
:1000E000B1E001C01D92A735B207E1F710E0CDE500
:1000F000D0E004C02197FE010E94D206CC35D10782
:10010000C9F70E94BE040C94DD060C940000EAE4DA
:10011000F1E0A089B18982E08C93A485B5851C9219
:10012000A685B7858FEC8C93108EA489B58986E05F
:100130008C93A289B3898C9180618C93A289B389B5
:100140008C9188608C93A289B3898C9180688C9300
:100150000288F389E02D80818F7D80830895CF927E
:10016000DF92EF92FF920F931F93CF93DF936C0177
:100170007A018B01C0E0D0E0CE15DF0589F0D8010F
:100180006D918D01D601ED91FC910190F081E02DF2
:10019000C6010995892B11F47E0102C02196ECCF8E
:1001A000C701DF91CF911F910F91FF90EF90DF90EA
:1001B000CF900895089580E090E00895FC01538D5C
:1001C000448D252F30E0842F90E0821B930B541731
:1001D00010F0CF96089501970895FC01918D828DBE
:1001E000981761F0828DDF01A80FB11D5D968C918B
:1001F000928D9F5F9F73928F90E008958FEF9FEF96
:100200000895FC01918D828D981731F0828DE80F51
:10021000F11D858D90E008958FEF9FEF0895FC010B
:10022000918D228D892F90E0805C9F4F821B9109D8
:100230008F73992708958AE491E00E940F0121E0CD
:10024000892B09F420E0822F0895FC01848DDF01C1
:10025000A80FB11DA35ABF4F2C91848D90E0019639
:100260008F739927848FA689B7892C93A089B18928
:100270008C9180648C93938D848D981306C0028832
:10028000F389E02D80818F7D80830895EF92FF9226
:100290000F931F93CF93DF93EC0181E0888F9B8DA9
:1002A0008C8D981305C0E889F989808185FD24C06B
:1002B000F62E0B8D10E00F5F1F4F0F731127E02EEE
:1002C0008C8DE8120CC00FB607FCFACFE889F989CB
:1002D000808185FFF5CFCE010E942501F1CF8B8D66
:1002E000FE01E80FF11DE35AFF4FF0820B8FEA8900
:1002F000FB898081806207C0EE89FF896083E8897D
:10030000F98980818064808381E090E0DF91CF91E2
:100310001F910F91FF90EF900895CF93DF93EC0121
:10032000888D8823C9F0EA89FB89808185FD05C015
:10033000A889B9898C9186FD0FC00FB607FCF5CF4F
:10034000808185FFF2CFA889B9898C9185FFEDCF97
:10035000CE010E942501E7CFDF91CF91089580E083
:1003600090E0892B29F00E941B0181110C94000060
:10037000089590E0FC01EE58FF4F3491FC01EC55DC
:10038000FF4F2491FC01E057FF4FE491EE2309F465
:100390003BC0332339F1333091F038F43130A9F0D8
:1003A000323001F584B58F7D12C0373091F038308E
:1003B000A1F03430B9F4809180008F7D03C080912A
:1003C00080008F77809380000DC084B58F7784BDC7
:1003D00009C08091B0008F7703C08091B0008F7DFD
:1003E0008093B000F0E0EE0FFF1FE859FF4FA5919A
:1003F000B4918FB7F894EC91611103C020952E232E
:1004000001C02E2B2C938FBF08952FB7F8946091C5
:100410003E0170913F0180914001909141012FBFB9
:1004200008958F929F92AF92BF92CF92DF92EF92F8
:10043000FF926B017C010E9405024B015C01C60E1C
:10044000D71EE81EF91E0E940502681579058A0567
:100450009B0528F0C616D706E806F906A0F7FF9018
:10046000EF90DF90CF90BF90AF909F908F900895C6
:100470000E94D8066115710579F0FB0101900020FA
:10048000E9F73197AF01461B570BDC01ED91FC9169
:100490000280F381E02D099480E090E008954F926E
:1004A0005F926F927F92EF92FF920F931F93CF9381
:1004B000DF93CDB7DEB7A1970FB6F894DEBF0FBEBE
:1004C000CDBF7C01FA01CB0119A2223008F42AE049
:1004D0008E010F5D1F4F422E512C612C712CBF01DC
:1004E000A30192010E94B006F901CA01015011094D
:1004F0006A3014F4605D01C0695CD8016C93232BF1
:10050000242B252B61F7B801C7010E943A02A1965E
:100510000FB6F894DEBF0FBECDBFDF91CF911F9114
:100520000F91FF90EF907F906F905F904F900895A4
:100530001F920F920FB60F9211242F933F934F9358
:100540005F936F937F938F939F93AF93BF93EF933B
:10055000FF938AE491E00E942501FF91EF91BF9102
:10056000AF919F918F917F916F915F914F913F914B
:100570002F910F900FBE0F901F9018951F920F9202
:100580000FB60F9211242F938F939F93EF93FF93A6
:10059000E0915A01F0915B018081E0916001F0915E
:1005A000610182FD12C09081809163018F5F8F7322
:1005B00020916401821751F0E0916301F0E0E65B65
:1005C000FE4F958F8093630101C08081FF91EF9171
:1005D0009F918F912F910F900FBE0F901F901895A4
:1005E0001F920F920FB60F9211242F933F938F9368
:1005F0009F93AF93BF9380913E0190913F01A09153
:100600004001B091410130913D0123E0230F2D378E
:1006100020F40196A11DB11D05C026E8230F029606
:10062000A11DB11D20933D0180933E0190933F0198
:10063000A0934001B09341018091390190913A011A
:10064000A0913B01B0913C010196A11DB11D809389
:10065000390190933A01A0933B01B0933C01BF91C3
:10066000AF919F918F913F912F910F900FBE0F905F
:100670001F9018951F920F920FB60F9211242F936F
:100680003F934F935F936F937F938F939F93AF931A
:10069000BF93EF93FF938091380187FF05C01092BD
:1006A0008500109284001BC020913801022E000C9E
:1006B000330B8091530290E02817390784F480911E
:1006C0003801082E000C990BFC01EE0FFF1F8E0F56
:1006D0009F1FFC01E15DFD4F808186FD15C080916B
:1006E00038018F5F8093380120913801022E000C71
:1006F000330B8091530290E028173907C4F480919E
:1007000038018C3064F113C080913801082E000C40
:10071000990BFC01EE0FFF1F8E0F9F1FFC01E15D87
:10072000FD4F808160E08F730E94B901D8CF809126
:10073000840090918500049680349C4918F480E4EC
:100740009CE905C080918400909185000496909367
:100750008900809388008FEF809338013BC02091FF
:1007600084003091850080913801082E000C990B8F
:10077000FC01EE0FFF1F8E0F9F1FFC01E15DFD4F7F
:1007800081819281820F931F9093890080938800CA
:1007900080913801082E000C990BFC01EE0FFF1F11
:1007A0008E0F9F1FFC01E15DFD4F808186FF12C00F
:1007B00080913801082E000C990BFC01EE0FFF1FF1
:1007C0008E0F9F1FFC01E15DFD4F808161E08F7303
:1007D0000E94B901FF91EF91BF91AF919F918F91CD
:1007E0007F916F915F914F913F912F910F900FBE2D
:1007F0000F901F901895CF92DF92EF92FF920F9378
:100800001F93E82FF92F05C0015011092109310963
:1008100061F1908196239417B9F305C00150110935
:100820002109310911F1908196239413F7CFC12C3E
:10083000D12CE12CF12C0AC08FEFC81AD80AE80A93
:10084000F80A0C151D052E053F0579F080818623D9
:10085000841791F36C2D7D2D8E2D9F2D1F910F915F
:10086000FF90EF90DF90CF90089560E070E080E01F
:1008700090E01F910F91FF90EF90DF90CF9008953F
:1008800010924D0110924C0188EE93E0A0E0B0E090
:1008900080934E0190934F01A0935001B09351016A
:1008A00084E091E090934B0180934A0185EC90E0C5
:1008B000909357018093560184EC90E090935901F6
:1008C0008093580180EC90E090935B0180935A01F3
:1008D00081EC90E090935D0180935C0182EC90E06C
:1008E00090935F0180935E0186EC90E090936101AC
:1008F000809360011092630110926401109265016F
:10090000109266011092ED011092EE011092EF012B
:100910001092F0011092F1011092F2011092F30185
:100920001092F4011092F5011092F6011092F70165
:100930001092F8011092F9011092FA011092FB0145
:100940001092FC01809153028C30A0F491E0980F3A
:10095000909353028093540290E0FC01EE0FFF1F2E
:100960008E0F9F1FFC01E15DFD4F88EB9BE09283A2
:10097000818308958FEF809354020895789484B50D
:10098000826084BD84B5816084BD85B5826085BD8B
:1009900085B5816085BD80916E00816080936E0019
:1009A000109281008091810082608093810080910B
:1009B00081008160809381008091800081608093BC
:1009C00080008091B10084608093B1008091B0007C
:1009D00081608093B00080917A00846080937A0077
:1009E00080917A00826080937A0080917A008160A1
:1009F00080937A0080917A00806880937A001092C8
:100A0000C10010922B0210922C0210922D02109213
:100A10002E021092E9011092EA011092EB0110925D
:100A2000EC0168EB7BE080E090E00E9411028AE438
:100A300091E090932A02809329020E9487000E94ED
:100A400005026093E9017093EA018093EB019093B2
:100A5000EC0162E171E08091290290912A020E94EA
:100A60003A026AE070E080E090E00E94110281E0CA
:100A70008093FD010E94870094EF492E55245394E2
:100A8000612C712CCDEAD0E029E9A22E20E0B22E13
:100A90000E940502672B682B692B41F40E94050216
:100AA000623071058105910508F40BC10E940502B1
:100AB00060934601709347018093480190934901E8
:100AC000C0904201D0904301E0904401F090450174
:100AD0006C157D058E059F0540F46093420170936F
:100AE00043018093440190934501C0904201D0900E
:100AF0004301E0904401F09045019B01AC012C19A9
:100B00003D094E095F0969017A013AEFC316D10424
:100B1000E104F10408F4D5C06093420170934301ED
:100B200080934401909345014092F5015092F60163
:100B30006092F7017092F8011092F9011092FA0197
:100B40001092FB011092FC018091ED019091EE0159
:100B5000A091EF01B091F0018093F1019093F20127
:100B6000A093F301B093F4010E9405026093ED019C
:100B70007093EE018093EF019093F0010E940502C3
:100B80006093E9017093EA018093EB019093EC018B
:100B90000E9405026B017C0164E271E080912902F0
:100BA00090912A020E943A022AE041E050E060E07F
:100BB00070E08091290290912A020E944F026BE21C
:100BC00071E08091290290912A020E943A022AE063
:100BD000B701A6018091290290912A020E944F023A
:100BE0006DE271E08091290290912A020E943A02FE
:100BF0008091ED019091EE01A091EF01B091F00193
:100C0000B701A601481B590B6A0B7B0B2AE08091A8
:100C1000290290912A020E944F026DE271E08091B8
:100C2000290290912A020E943A024091ED015091CE
:100C3000EE016091EF017091F0018091F1019091CE
:100C4000F201A091F301B091F401481B590B6A0B1A
:100C50007B0B2AE08091290290912A020E944F0288
:100C60006FE271E08091290290912A020E943A027B
:100C70000E940502AB01BC012AE0809129029091FB
:100C80002A020E944F02E0902902F0902A0261E3BA
:100C900071E0C7010E943A0261E271E0C7010E945F
:100CA0003A0265E070E080E090E00E9411020E944C
:100CB00005026093ED017093EE018093EF01909334
:100CC000F001FE016491F5018491E82FF0E0EE0F50
:100CD000FF1FEA57FF4F8591949100E412E42FE043
:100CE00030E0462F0E94FB036115710581059105D7
:100CF00051F06B017C01FFEFCF1ADF0AEF0AFF0A08
:100D00002FE0F22203C0C12CD12C76010D2C000C57
:100D1000EE08FF08F7FE14C0E0914A01F0914B0184
:100D20000190F081E02D6DE28AE491E0099544277D
:100D30005527BA014C195D096E097F092AE003C0E5
:100D40002AE0B701A6018AE491E00E944F0261E225
:100D500071E08AE491E00E943A020E94AF0198CECD
:100D6000A1E21A2EAA1BBB1BFD010DC0AA1FBB1FAF
:100D7000EE1FFF1FA217B307E407F50720F0A21B21
:100D8000B30BE40BF50B661F771F881F991F1A948E
:100D900069F760957095809590959B01AC01BD01B8
:100DA000CF010895EE0FFF1F0590F491E02D0994F7
:0E0DB00081E090E0F8940C94DD06F894FFCFFB
:100DBE00000000004601AF00DE008D010F01ED00C6
:100DCE000101564D4450565F317C315F564D4450B3
:100DDE00560D0A00564D4450455F003A323A007C9B
:080DEE00005F564D4450450022
:107800000C94343C0C94513C0C94513C0C94513CE1
:107810000C94513C0C94513C0C94513C0C94513CB4
:107820000C94513C0C94513C0C94513C0C94513CA4
:107830000C94513C0C94513C0C94513C0C94513C94
:107840000C94513C0C94513C0C94513C0C94513C84
:107850000C94513C0C94513C0C94513C0C94513C74
:107860000C94513C0C94513C11241FBECFEFD8E036
:10787000DEBFCDBF11E0A0E0B1E0ECE9FFE702C060
:1078800005900D92A230B107D9F712E0A2E0B1E065
:1078900001C01D92AD30B107E1F70E942D3D0C945F
:1078A000CC3F0C94003C982F959595959595959582
:1078B000905D8F708A307CF0282F295A8091C0000B
:1078C00085FFFCCF9093C6008091C00085FFFCCF60
:1078D0002093C6000895282F205DF0CF982F809127
:1078E000C00085FFFCCF9093C6000895EF92FF92F1
:1078F0000F931F93EE24FF2487018091C00087FD22
:1079000017C00894E11CF11C011D111D81E4E8164B
:1079100082E4F8068FE0080780E0180770F3E09132
:107920000401F091050109958091C00087FFE9CF1E
:107930008091C6001F910F91FF90EF9008950E94D3
:10794000763C982F8091C00085FFFCCF9093C600B5
:1079500091362CF490330CF09053892F089597555D
:10796000892F08951F930E949F3C182F0E949F3CCF
:107970001295107F810F1F9108951F93182F882350
:1079800021F00E94763C1150E1F71F9108951F935A
:10799000182F0E94763C803249F0809103018F5F5E
:1079A000809303018530C1F01F9108958091C0003C
:1079B00085FFFCCF84E18093C6008091C00085FFE5
:1079C000FCCF1093C6008091C00085FFFCCF80E102
:1079D0008093C6001F910895E0910401F091050184
:1079E00009951F9108950E94763C803241F0809164
:1079F00003018F5F80930301853081F008958091AA
:107A0000C00085FFFCCF84E18093C6008091C00058
:107A100085FFFCCF80E18093C6000895E0910401CA
:107A2000F09105010995089540E951E08823A1F0FE
:107A30002D9A28EE33E0FA013197F1F721503040CA
:107A4000D1F72D9828EE33E0FA013197F1F7215064
:107A50003040D1F7815061F708953F924F925F9285
:107A60006F927F928F929F92AF92BF92CF92DF924E
:107A7000EF92FF920F931F93CF93DF93000080E16B
:107A80008093C4001092C50088E18093C10086E015
:107A90008093C2005098589A259A81E00E94143D24
:107AA00024E1F22E9EE1E92E85E9D82E0FE0C02ECA
:107AB00010E1B12EAA24A394B1E49B2EA6E58A2E50
:107AC000F2E57F2EE0E26E2E79E4572E63E5462E36
:107AD00050E5352E0E94763C8033B1F18133B9F107
:107AE000803409F46FC0813409F476C0823409F41B
:107AF00085C0853409F488C0803531F1823521F1A3
:107B0000813511F1853509F485C0863509F48DC0BC
:107B1000843609F496C0843709F403C1853709F423
:107B200072C1863709F466C0809103018F5F80932C
:107B30000301853079F6E0910401F0910501099582
:107B40000E94763C803351F60E94F33CC3CF0E94E2
:107B5000763C803249F78091C00085FFFCCFF092DF
:107B6000C6008091C00085FFFCCF9092C600809136
:107B7000C00085FFFCCF8092C6008091C00085FFC9
:107B8000FCCF7092C6008091C00085FFFCCF609250
:107B9000C6008091C00085FFFCCF5092C600809146
:107BA000C00085FFFCCF4092C6008091C00085FFD9
:107BB000FCCF3092C6008091C00085FFFCCFB09210
:107BC000C60088CF0E94763C863808F4BDCF0E945C
:107BD000763C0E94F33C7ECF0E94763C803809F4CC
:107BE0009CC0813809F40BC1823809F43CC1883942
:107BF00009F48FC080E00E94C73C6CCF84E10E94F2
:107C0000BD3C0E94F33C66CF85E00E94BD3C0E94D3
:107C1000F33C60CF0E94763C809306010E94763C44
:107C2000809307010E94F33C55CF0E94763C80333D
:107C300009F41DC183E00E94BD3C80E00E94C73C66
:107C400049CF0E94763C809309020E94763C809343
:107C5000080280910C028E7F80930C020E94763C79
:107C6000853409F415C18091080290910902892B8D
:107C700089F000E010E00E94763CF801E85FFE4FDA
:107C800080830F5F1F4F80910802909109020817AF
:107C9000190788F30E94763C803209F045CF809125
:107CA0000C0280FF01C16091060170910701660F0F
:107CB000771F7093070160930601A0910802B091AD
:107CC00009021097C9F0E8E0F1E09B01AD014E0F09
:107CD0005F1FF999FECF32BD21BD819180BDFA9A17
:107CE000F99A2F5F3F4FE417F50799F76A0F7B1F4B
:107CF00070930701609306018091C00085FFFCCF5F
:107D0000F092C6008091C00085FFFCCFB092C60003
:107D1000E1CE83E00E94C73CDDCE82E00E94C73CFA
:107D2000D9CE0E94763C809309020E94763C8093D3
:107D300008028091060190910701880F991F909386
:107D40000701809306010E94763C853409F4A6C0A1
:107D500080910C028E7F80930C020E94763C8032D0
:107D600009F0B8CE8091C00085FFFCCFF092C6002C
:107D7000609108027091090261157105B9F140E046
:107D800050E080910C02A82FA170B82FB27011C0E2
:107D9000BB2309F45CC0E0910601F0910701319624
:107DA000F0930701E09306014F5F5F4F46175707B7
:107DB000E8F4AA2369F3F999FECF209106013091E6
:107DC000070132BD21BDF89A90B58091C00085FFB2
:107DD000FCCF9093C6002F5F3F4F30930701209355
:107DE00006014F5F5F4F4617570718F38091C00099
:107DF00085FDE5CE8091C00085FFF8CFE0CE81E023
:107E00000E94C73C67CE0E94763C803209F08CCE3F
:107E10008091C00085FFFCCFF092C6008091C00029
:107E200085FFFCCFE092C6008091C00085FFFCCFAB
:107E3000D092C6008091C00085FFFCCFC092C600E2
:107E40008091C00085FFFCCFB092C60043CEE09188
:107E50000601F091070194918091C00085FFFCCF4D
:107E60009093C6009CCF80E10E94C73C33CE0E9415
:107E7000763C0E94763C182F0E94763C112309F430
:107E800083C0113009F484C08FE00E94C73C22CE29
:107E900080910C02816080930C02E5CE80910C02EF
:107EA000816080930C0259CF809107018823880F4D
:107EB000880B8A2180930B02809106019091070123
:107EC000880F991F90930701809306018091080203
:107ED00080FF09C080910802909109020196909359
:107EE000090280930802F894F999FECF1127E091D6
:107EF0000601F0910701C8E0D1E08091080290915D
:107F00000902103091F40091570001700130D9F34B
:107F100003E000935700E89500915700017001308D
:107F2000D9F301E100935700E89509901990009169
:107F3000570001700130D9F301E000935700E89534
:107F40001395103498F011270091570001700130FB
:107F5000D9F305E000935700E895009157000170B0
:107F60000130D9F301E100935700E895329602976A
:107F700009F0C7CF103011F00296E5CF112480919F
:107F8000C00085FFB9CEBCCE8EE10E94C73CA2CD19
:0C7F900085E90E94C73C9ECDF894FFCF0D
:027F9C00800063
:040000030000780081
:00000001FF