:100000000C945D000C9485000C9485000C94850084
:100010000C9485000C9485000C9485000C9485004C
:100020000C9485000C9485000C9485000C94D202ED
:100030000C9485000C9485000C9485000C9485002C
:100040000C9430020C9485000C94A0020C947A025B
:100050000C9485000C9485000C9485000C9485000C
:100060000C9485000C9485000000000025002800F9
:100070002B0000000008000201000003040700003C
:1000800000000000000000000000230026002900FE
:10009000040404040404040402020202020203032E
:1000A0000303030301020408102040800102040836
:1000B0001020010204081020D80311241FBECFEF26
:1000C000D8E0DEBFCDBF11E0A0E0B1E0E4E6FAE0A9
:1000D00002C005900D92A631B107D9F721E0A6E143
:1000E000B1E001C01D92A53EB207E1F710E0CDE5F9
:1000F000D0E004C02197FE010E942505CC35D10730
:10010000C9F70E9436040C9430050C940000CF927D
:10011000DF92EF92FF920F931F93CF93DF936C01C7
:100120007A018B01C0E0D0E0CE15DF0589F0D8015F
:100130006D918D01D601ED91FC910190F081E02D42
:10014000C6010995892B11F47E0102C02196ECCFDE
:10015000C701DF91CF911F910F91FF90EF90DF903A
:10016000CF900895089580E090E00895FC01538DAC
:10017000448D252F30E0842F90E0821B930B541781
:1001800010F0CF96089501970895FC01918D828D0E
:10019000981761F0828DDF01A80FB11D5D968C91DB
:1001A000928D9F5F9F73928F90E008958FEF9FEFE6
:1001B0000895FC01918D828D981731F0828DE80FA2
:1001C000F11D858D90E008958FEF9FEF0895FC015C
:1001D000918D228D892F90E0805C9F4F821B910929
:1001E0008F739927089580E291E00E94E70021E053
:1001F000892B09F420E0822F0895FC01848DDF0112
:10020000A80FB11DA35ABF4F2C91848D90E0019689
:100210008F739927848FA689B7892C93A089B18978
:100220008C9180648C93938D848D981306C0028882
:10023000F389E02D80818F7D80830895EF92FF9276
:100240000F931F93CF93DF93EC0181E0888F9B8DF9
:100250008C8D981305C0E889F989808185FD24C0BB
:10026000F62E0B8D10E00F5F1F4F0F731127E02E3E
:100270008C8DE8120CC00FB607FCFACFE889F9891B
:10028000808185FFF5CFCE010E94FD00F1CF8B8DDF
:10029000FE01E80FF11DE35AFF4FF0820B8FEA8950
:1002A000FB898081806207C0EE89FF896083E889CD
:1002B000F98980818064808381E090E0DF91CF9133
:1002C0001F910F91FF90EF900895CF93DF93EC0172
:1002D000888D8823C9F0EA89FB89808185FD05C066
:1002E000A889B9898C9186FD0FC00FB607FCF5CFA0
:1002F000808185FFF2CFA889B9898C9185FFEDCFE8
:10030000CE010E94FD00E7CFDF91CF91089580E0FC
:1003100090E0892B29F00E94F30081110C940000D9
:10032000089590E0FC01EE58FF4F3491FC01EC552C
:10033000FF4F2491FC01E057FF4FE491EE2309F4B5
:100340003BC0332339F1333091F038F43130A9F028
:10035000323001F584B58F7D12C0373091F03830DE
:10036000A1F03430B9F4809180008F7D03C080917A
:1003700080008F77809380000DC084B58F7784BD17
:1003800009C08091B0008F7703C08091B0008F7D4D
:100390008093B000F0E0EE0FFF1FE859FF4FA591EA
:1003A000B4918FB7F894EC91611103C020952E237E
:1003B00001C02E2B2C938FBF08958F929F92AF92E6
:1003C000BF920F931F93CF93DF93CDB7DEB7A19763
:1003D0000FB6F894DEBF0FBECDBF19A2423008F4AD
:1003E0004AE08E010F5D1F4F842E912CA12CB12C61
:1003F000A50194010E940305E62FB901CA0101502D
:100400001109EA3014F4E05D01C0E95CD801EC9315
:10041000232B242B252B61F70115110571F0F80111
:1004200001900020E9F73197AF01401B510BB80153
:1004300080E291E00E94870002C080E090E0A196F7
:100440000FB6F894DEBF0FBECDBFDF91CF911F91E5
:100450000F91BF90AF909F908F9008950E942B05B1
:100460001F920F920FB60F9211242F933F938F93E9
:100470009F93AF93BF9380911C0190911D01A09118
:100480001E01B0911F0130911B0123E0230F2D3776
:1004900020F40196A11DB11D05C026E8230F029688
:1004A000A11DB11D20931B0180931C0190931D0180
:1004B000A0931E01B0931F01809117019091180124
:1004C000A0911901B0911A010196A11DB11D80934F
:1004D000170190931801A0931901B0931A01BF91CD
:1004E000AF919F918F913F912F910F900FBE0F90E1
:1004F0001F9018951F920F920FB60F9211242F93F1
:100500003F934F935F936F937F938F939F93AF939B
:10051000BF93EF93FF9380E291E00E94FD00FF9173
:10052000EF91BF91AF919F918F917F916F915F916B
:100530004F913F912F910F900FBE0F901F901895E4
:100540001F920F920FB60F9211242F938F939F93A8
:10055000EF93FF93E0913001F09131018081E091C0
:100560003601F091370182FD12C0908180913901EE
:100570008F5F8F7320913A01821751F0E09139011A
:10058000F0E0E05EFE4F958F8093390101C08081DD
:10059000FF91EF919F918F912F910F900FBE0F9030
:1005A0001F9018951F920F920FB60F9211242F9340
:1005B0003F934F935F936F937F938F939F93AF93EB
:1005C000BF93EF93FF938091160187FF05C01092B0
:1005D0008500109284001BC020911601022E000C91
:1005E000330B8091E10190E02817390784F4809162
:1005F0001601082E000C990BFC01EE0FFF1F8E0F49
:100600009F1FFC01E354FE4F808186FD15C0809141
:1006100016018F5F8093160120911601022E000CA7
:10062000330B8091E10190E028173907C4F48091E1
:1006300016018C3064F113C080911601082E000C55
:10064000990BFC01EE0FFF1F8E0F9F1FFC01E3545F
:10065000FE4F808160E08F730E949101D8CF80911E
:10066000840090918500049680349C4918F480E4BD
:100670009CE905C080918400909185000496909338
:100680008900809388008FEF809316013BC02091F2
:1006900084003091850080911601082E000C990B82
:1006A000FC01EE0FFF1F8E0F9F1FFC01E354FE4F56
:1006B00081819281820F931F90938900809388009B
:1006C00080911601082E000C990BFC01EE0FFF1F04
:1006D0008E0F9F1FFC01E354FE4F808186FF12C0E6
:1006E00080911601082E000C990BFC01EE0FFF1FE4
:1006F0008E0F9F1FFC01E354FE4F808161E08F73DA
:100700000E949101FF91EF91BF91AF919F918F91C5
:100710007F916F915F914F913F912F910F900FBEFD
:100720000F901F901895CF92DF92EF92FF920F9348
:100730001F93E82FF92F05C0015011092109310934
:1007400061F1908196239417B9F305C00150110906
:100750002109310911F1908196239413F7CFC12C0F
:10076000D12CE12CF12C0AC08FEFC81AD80AE80A64
:10077000F80A0C151D052E053F0579F080818623AA
:10078000841791F36C2D7D2D8E2D9F2D1F910F9130
:10079000FF90EF90DF90CF90089560E070E080E0F0
:1007A00090E01F910F91FF90EF90DF90CF90089510
:1007B000109223011092220188EE93E0A0E0B0E0B5
:1007C0008093240190932501A0932601B0932701E3
:1007D00084E091E0909321018093200185EC90E0EA
:1007E00090932D0180932C0184EC90E090932F0145
:1007F00080932E0180EC90E0909331018093300142
:1008000081EC90E0909333018093320182EC90E090
:10081000909335018093340186EC90E090933701FA
:10082000809336011092390110923A0110923B01E7
:1008300010923C018091E1018C30A0F491E0980F7E
:100840009093E1018093E20190E0FC01EE0FFF1F25
:100850008E0F9F1FFC01E354FE4F88EB9BE09283B9
:10086000818308958FEF8093E2010895789484B591
:10087000826084BD84B5816084BD85B5826085BD9C
:1008800085B5816085BD80916E00816080936E002A
:10089000109281008091810082608093810080911C
:1008A00081008160809381008091800081608093CD
:1008B00080008091B10084608093B1008091B0008D
:1008C00081608093B00080917A00846080937A0088
:1008D00080917A00826080937A0080917A008160B2
:1008E00080937A0080917A00806880937A001092D9
:1008F000C100E0913001F091310182E08083E0910C
:100900002C01F0912D011082E0912E01F0912F0128
:100910008FEC808310923801E0913401F091350121
:1009200086E08083E0913201F09133018081806123
:100930008083E0913201F09133018081886080836F
:10094000E0913201F0913301808180688083E091F1
:100950003201F091330180818F7D8083CDEAD0E038
:1009600099E9A92E90E0B92EFE016491F5018491D8
:10097000E82FF0E0EE0FFF1FEA57FF4F85919491AB
:1009800000E412E42FE030E0462F0E94930361154B
:1009900071058105910551F06B017C01FFEFCF1AC4
:1009A000DF0AEF0AFF0A2FE0F22203C0C12CD12C8C
:1009B00076010D2C000CEE08FF08F7FE14C0E09144
:1009C0002001F09121010190F081E02D6DE280E2A3
:1009D00091E0099566277727CB016C197D098E096F
:1009E0009F094AE003C04AE0C701B6010E94DD0149
:1009F00042E050E062E171E080E291E00E94870015
:100A00000E948701B1CFA1E21A2EAA1BBB1BFD01D8
:100A10000DC0AA1FBB1FEE1FFF1FA217B307E407DD
:100A2000F50720F0A21BB30BE40BF50B661F771F35
:100A3000881F991F1A9469F7609570958095909515
:100A40009B01AC01BD01CF010895EE0FFF1F059082
:100A5000F491E02D099481E090E0F8940C94300535
:040A6000F894FFCF38
:100A6400000000001E018700B6006501E700C50014
:060A7400D9000D0A00008C
:00000001FF
